{
  "_format": "hh-sol-artifact-1",
  "contractName": "MAHToken",
  "sourceName": "contracts/MAHToken.sol",
  "abi": [
    {
      "inputs": [],
      "stateMutability": "nonpayable",
      "type": "constructor"
    },
    {
      "anonymous": false,
      "inputs": [
        {
          "indexed": true,
          "internalType": "address",
          "name": "owner",
          "type": "address"
        },
        {
          "indexed": true,
          "internalType": "address",
          "name": "spender",
          "type": "address"
        },
        {
          "indexed": false,
          "internalType": "uint256",
          "name": "value",
          "type": "uint256"
        }
      ],
      "name": "Approval",
      "type": "event"
    },
    {
      "anonymous": false,
      "inputs": [
        {
          "indexed": true,
          "internalType": "address",
          "name": "from",
          "type": "address"
        },
        {
          "indexed": true,
          "internalType": "address",
          "name": "to",
          "type": "address"
        },
        {
          "indexed": false,
          "internalType": "uint256",
          "name": "value",
          "type": "uint256"
        }
      ],
      "name": "Transfer",
      "type": "event"
    },
    {
      "inputs": [
        {
          "internalType": "address",
          "name": "owner",
          "type": "address"
        },
        {
          "internalType": "address",
          "name": "spender",
          "type": "address"
        }
      ],
      "name": "allowance",
      "outputs": [
        {
          "internalType": "uint256",
          "name": "",
          "type": "uint256"
        }
      ],
      "stateMutability": "view",
      "type": "function"
    },
    {
      "inputs": [
        {
          "internalType": "address",
          "name": "spender",
          "type": "address"
        },
        {
          "internalType": "uint256",
          "name": "amount",
          "type": "uint256"
        }
      ],
      "name": "approve",
      "outputs": [
        {
          "internalType": "bool",
          "name": "",
          "type": "bool"
        }
      ],
      "stateMutability": "nonpayable",
      "type": "function"
    },
    {
      "inputs": [
        {
          "internalType": "address",
          "name": "account",
          "type": "address"
        }
      ],
      "name": "balanceOf",
      "outputs": [
        {
          "internalType": "uint256",
          "name": "",
          "type": "uint256"
        }
      ],
      "stateMutability": "view",
      "type": "function"
    },
    {
      "inputs": [],
      "name": "decimals",
      "outputs": [
        {
          "internalType": "uint8",
          "name": "",
          "type": "uint8"
        }
      ],
      "stateMutability": "view",
      "type": "function"
    },
    {
      "inputs": [
        {
          "internalType": "address",
          "name": "spender",
          "type": "address"
        },
        {
          "internalType": "uint256",
          "name": "subtractedValue",
          "type": "uint256"
        }
      ],
      "name": "decreaseAllowance",
      "outputs": [
        {
          "internalType": "bool",
          "name": "",
          "type": "bool"
        }
      ],
      "stateMutability": "nonpayable",
      "type": "function"
    },
    {
      "inputs": [],
      "name": "erc20Address",
      "outputs": [
        {
          "internalType": "address",
          "name": "",
          "type": "address"
        }
      ],
      "stateMutability": "view",
      "type": "function"
    },
    {
      "inputs": [
        {
          "internalType": "address",
          "name": "spender",
          "type": "address"
        },
        {
          "internalType": "uint256",
          "name": "addedValue",
          "type": "uint256"
        }
      ],
      "name": "increaseAllowance",
      "outputs": [
        {
          "internalType": "bool",
          "name": "",
          "type": "bool"
        }
      ],
      "stateMutability": "nonpayable",
      "type": "function"
    },
    {
      "inputs": [],
      "name": "name",
      "outputs": [
        {
          "internalType": "string",
          "name": "",
          "type": "string"
        }
      ],
      "stateMutability": "view",
      "type": "function"
    },
    {
      "inputs": [
        {
          "internalType": "address",
          "name": "gotAddress",
          "type": "address"
        }
      ],
      "name": "setSmartContractAddress",
      "outputs": [],
      "stateMutability": "nonpayable",
      "type": "function"
    },
    {
      "inputs": [],
      "name": "symbol",
      "outputs": [
        {
          "internalType": "string",
          "name": "",
          "type": "string"
        }
      ],
      "stateMutability": "view",
      "type": "function"
    },
    {
      "inputs": [],
      "name": "totalSupply",
      "outputs": [
        {
          "internalType": "uint256",
          "name": "",
          "type": "uint256"
        }
      ],
      "stateMutability": "view",
      "type": "function"
    },
    {
      "inputs": [
        {
          "internalType": "address",
          "name": "to",
          "type": "address"
        },
        {
          "internalType": "uint256",
          "name": "amount",
          "type": "uint256"
        }
      ],
      "name": "transfer",
      "outputs": [
        {
          "internalType": "bool",
          "name": "",
          "type": "bool"
        }
      ],
      "stateMutability": "nonpayable",
      "type": "function"
    },
    {
      "inputs": [
        {
          "internalType": "address",
          "name": "from",
          "type": "address"
        },
        {
          "internalType": "address",
          "name": "to",
          "type": "address"
        },
        {
          "internalType": "uint256",
          "name": "amount",
          "type": "uint256"
        }
      ],
      "name": "transferFrom",
      "outputs": [
        {
          "internalType": "bool",
          "name": "",
          "type": "bool"
        }
      ],
      "stateMutability": "nonpayable",
      "type": "function"
    }
  ],
  "bytecode": "0x60806040523480156200001157600080fd5b506040518060400160405280600981526020016826a0a4102a37b5b2b760b91b8152506040518060400160405280600381526020016209a82960eb1b815250816003908051906020019062000068929190620001ab565b5080516200007e906004906020840190620001ab565b505050620000b93362000096620000bf60201b60201c565b620000a390600a620002f9565b620000b390633b9aca00620003f1565b620000c4565b62000466565b601290565b6001600160a01b038216620000f65760405162461bcd60e51b8152600401620000ed9062000251565b60405180910390fd5b6200010460008383620001a6565b806002600082825462000118919062000291565b90915550506001600160a01b038216600090815260208190526040812080548392906200014790849062000291565b90915550506040516001600160a01b038316906000907fddf252ad1be2c89b69c2b068fc378daa952ba7f163c4a11628f55a4df523b3ef906200018c90859062000288565b60405180910390a3620001a260008383620001a6565b5050565b505050565b828054620001b99062000413565b90600052602060002090601f016020900481019282620001dd576000855562000228565b82601f10620001f857805160ff191683800117855562000228565b8280016001018555821562000228579182015b82811115620002285782518255916020019190600101906200020b565b50620002369291506200023a565b5090565b5b808211156200023657600081556001016200023b565b6020808252601f908201527f45524332303a206d696e7420746f20746865207a65726f206164647265737300604082015260600190565b90815260200190565b60008219821115620002a757620002a762000450565b500190565b80825b6001808611620002c05750620002f0565b818704821115620002d557620002d562000450565b80861615620002e357918102915b9490941c938002620002af565b94509492505050565b60006200030d60001960ff85168462000314565b9392505050565b60008262000325575060016200030d565b8162000334575060006200030d565b81600181146200034d576002811462000358576200038c565b60019150506200030d565b60ff8411156200036c576200036c62000450565b6001841b91508482111562000385576200038562000450565b506200030d565b5060208310610133831016604e8410600b8410161715620003c4575081810a83811115620003be57620003be62000450565b6200030d565b620003d38484846001620002ac565b808604821115620003e857620003e862000450565b02949350505050565b60008160001904831182151516156200040e576200040e62000450565b500290565b6002810460018216806200042857607f821691505b602082108114156200044a57634e487b7160e01b600052602260045260246000fd5b50919050565b634e487b7160e01b600052601160045260246000fd5b6109cf80620004766000396000f3fe608060405234801561001057600080fd5b50600436106100cf5760003560e01c8063395093511161008c57806395d89b411161006657806395d89b411461019f578063a457c2d7146101a7578063a9059cbb146101ba578063dd62ed3e146101cd576100cf565b8063395093511461016457806342825fcd1461017757806370a082311461018c576100cf565b806306fdde03146100d4578063095ea7b3146100f257806318160ddd1461011257806323b872dd14610127578063276184ae1461013a578063313ce5671461014f575b600080fd5b6100dc6101e0565b6040516100e99190610700565b60405180910390f35b6101056101003660046106b8565b610272565b6040516100e991906106f5565b61011a610294565b6040516100e99190610923565b61010561013536600461067d565b61029a565b6101426102c8565b6040516100e991906106e1565b6101576102d7565b6040516100e9919061092c565b6101056101723660046106b8565b6102dc565b61018a61018536600461062a565b610308565b005b61011a61019a36600461062a565b61032a565b6100dc610349565b6101056101b53660046106b8565b610358565b6101056101c83660046106b8565b6103a9565b61011a6101db36600461064b565b6103c1565b6060600380546101ef9061095e565b80601f016020809104026020016040519081016040528092919081815260200182805461021b9061095e565b80156102685780601f1061023d57610100808354040283529160200191610268565b820191906000526020600020905b81548152906001019060200180831161024b57829003601f168201915b5050505050905090565b60008061027d6103ec565b905061028a8185856103f0565b5060019392505050565b60025490565b6000806102a56103ec565b90506102b28582856104a4565b6102bd8585856104ee565b506001949350505050565b6005546001600160a01b031681565b601290565b6000806102e76103ec565b905061028a8185856102f985896103c1565b610303919061093a565b6103f0565b600580546001600160a01b0319166001600160a01b0392909216919091179055565b6001600160a01b0381166000908152602081905260409020545b919050565b6060600480546101ef9061095e565b6000806103636103ec565b9050600061037182866103c1565b90508381101561039c5760405162461bcd60e51b8152600401610393906108de565b60405180910390fd5b6102bd82868684036103f0565b6000806103b46103ec565b905061028a8185856104ee565b6001600160a01b03918216600090815260016020908152604080832093909416825291909152205490565b3390565b6001600160a01b0383166104165760405162461bcd60e51b81526004016103939061089a565b6001600160a01b03821661043c5760405162461bcd60e51b815260040161039390610796565b6001600160a01b0380841660008181526001602090815260408083209487168084529490915290819020849055517f8c5be1e5ebec7d5bd14f71427d1e84f3dd0314c0f7b2291e5b200ac8c7c3b92590610497908590610923565b60405180910390a3505050565b60006104b084846103c1565b905060001981146104e857818110156104db5760405162461bcd60e51b8152600401610393906107d8565b6104e884848484036103f0565b50505050565b6001600160a01b0383166105145760405162461bcd60e51b815260040161039390610855565b6001600160a01b03821661053a5760405162461bcd60e51b815260040161039390610753565b61054583838361060e565b6001600160a01b0383166000908152602081905260409020548181101561057e5760405162461bcd60e51b81526004016103939061080f565b6001600160a01b038085166000908152602081905260408082208585039055918516815290812080548492906105b590849061093a565b92505081905550826001600160a01b0316846001600160a01b03167fddf252ad1be2c89b69c2b068fc378daa952ba7f163c4a11628f55a4df523b3ef846040516105ff9190610923565b60405180910390a36104e88484845b505050565b80356001600160a01b038116811461034457600080fd5b60006020828403121561063b578081fd5b61064482610613565b9392505050565b6000806040838503121561065d578081fd5b61066683610613565b915061067460208401610613565b90509250929050565b600080600060608486031215610691578081fd5b61069a84610613565b92506106a860208501610613565b9150604084013590509250925092565b600080604083850312156106ca578182fd5b6106d383610613565b946020939093013593505050565b6001600160a01b0391909116815260200190565b901515815260200190565b6000602080835283518082850152825b8181101561072c57858101830151858201604001528201610710565b8181111561073d5783604083870101525b50601f01601f1916929092016040019392505050565b60208082526023908201527f45524332303a207472616e7366657220746f20746865207a65726f206164647260408201526265737360e81b606082015260800190565b60208082526022908201527f45524332303a20617070726f766520746f20746865207a65726f206164647265604082015261737360f01b606082015260800190565b6020808252601d908201527f45524332303a20696e73756666696369656e7420616c6c6f77616e6365000000604082015260600190565b60208082526026908201527f45524332303a207472616e7366657220616d6f756e7420657863656564732062604082015265616c616e636560d01b606082015260800190565b60208082526025908201527f45524332303a207472616e736665722066726f6d20746865207a65726f206164604082015264647265737360d81b606082015260800190565b60208082526024908201527f45524332303a20617070726f76652066726f6d20746865207a65726f206164646040820152637265737360e01b606082015260800190565b60208082526025908201527f45524332303a2064656372656173656420616c6c6f77616e63652062656c6f77604082015264207a65726f60d81b606082015260800190565b90815260200190565b60ff91909116815260200190565b6000821982111561095957634e487b7160e01b81526011600452602481fd5b500190565b60028104600182168061097257607f821691505b6020821081141561099357634e487b7160e01b600052602260045260246000fd5b5091905056fea26469706673582212208a8473ee18ed4e0c6fde4695b80a0cfb277ebd75c43e09807814279a06d30a1164736f6c63430008000033",
  "linkReferences": {},
  "deployedLinkReferences": {}
}