{
  "_format": "hh-sol-artifact-1",
  "contractName": "NFTMarketplace",
  "sourceName": "contracts/NFTMarketplace.sol",
  "abi": [
    {
      "inputs": [
        {
          "internalType": "string",
          "name": "tokenName",
          "type": "string"
        },
        {
          "internalType": "string",
          "name": "tokenSymbol",
          "type": "string"
        },
        {
          "internalType": "uint256",
          "name": "gotMaxTokenSupply",
          "type": "uint256"
        }
      ],
      "stateMutability": "nonpayable",
      "type": "constructor"
    },
    {
      "anonymous": false,
      "inputs": [
        {
          "indexed": true,
          "internalType": "address",
          "name": "owner",
          "type": "address"
        },
        {
          "indexed": true,
          "internalType": "address",
          "name": "approved",
          "type": "address"
        },
        {
          "indexed": true,
          "internalType": "uint256",
          "name": "tokenId",
          "type": "uint256"
        }
      ],
      "name": "Approval",
      "type": "event"
    },
    {
      "anonymous": false,
      "inputs": [
        {
          "indexed": true,
          "internalType": "address",
          "name": "owner",
          "type": "address"
        },
        {
          "indexed": true,
          "internalType": "address",
          "name": "operator",
          "type": "address"
        },
        {
          "indexed": false,
          "internalType": "bool",
          "name": "approved",
          "type": "bool"
        }
      ],
      "name": "ApprovalForAll",
      "type": "event"
    },
    {
      "anonymous": false,
      "inputs": [
        {
          "indexed": true,
          "internalType": "uint256",
          "name": "tokenId",
          "type": "uint256"
        },
        {
          "indexed": true,
          "internalType": "address",
          "name": "nftContract",
          "type": "address"
        },
        {
          "indexed": false,
          "internalType": "string",
          "name": "uri",
          "type": "string"
        },
        {
          "indexed": false,
          "internalType": "address",
          "name": "creator",
          "type": "address"
        },
        {
          "indexed": false,
          "internalType": "address",
          "name": "owner",
          "type": "address"
        },
        {
          "indexed": false,
          "internalType": "uint256",
          "name": "price",
          "type": "uint256"
        },
        {
          "indexed": false,
          "internalType": "bool",
          "name": "forSale",
          "type": "bool"
        }
      ],
      "name": "MarketItemCreated",
      "type": "event"
    },
    {
      "anonymous": false,
      "inputs": [
        {
          "indexed": true,
          "internalType": "address",
          "name": "previousOwner",
          "type": "address"
        },
        {
          "indexed": true,
          "internalType": "address",
          "name": "newOwner",
          "type": "address"
        }
      ],
      "name": "OwnershipTransferred",
      "type": "event"
    },
    {
      "anonymous": false,
      "inputs": [
        {
          "indexed": true,
          "internalType": "address",
          "name": "from",
          "type": "address"
        },
        {
          "indexed": true,
          "internalType": "address",
          "name": "to",
          "type": "address"
        },
        {
          "indexed": true,
          "internalType": "uint256",
          "name": "tokenId",
          "type": "uint256"
        }
      ],
      "name": "Transfer",
      "type": "event"
    },
    {
      "inputs": [],
      "name": "_bidIds",
      "outputs": [
        {
          "internalType": "uint256",
          "name": "_value",
          "type": "uint256"
        }
      ],
      "stateMutability": "view",
      "type": "function"
    },
    {
      "inputs": [],
      "name": "_customToken",
      "outputs": [
        {
          "internalType": "contract IERC20",
          "name": "",
          "type": "address"
        }
      ],
      "stateMutability": "view",
      "type": "function"
    },
    {
      "inputs": [],
      "name": "_customTokenAddress",
      "outputs": [
        {
          "internalType": "address",
          "name": "",
          "type": "address"
        }
      ],
      "stateMutability": "view",
      "type": "function"
    },
    {
      "inputs": [],
      "name": "_tokenName",
      "outputs": [
        {
          "internalType": "string",
          "name": "",
          "type": "string"
        }
      ],
      "stateMutability": "view",
      "type": "function"
    },
    {
      "inputs": [],
      "name": "_tokenSymbol",
      "outputs": [
        {
          "internalType": "string",
          "name": "",
          "type": "string"
        }
      ],
      "stateMutability": "view",
      "type": "function"
    },
    {
      "inputs": [],
      "name": "_useCustomToken",
      "outputs": [
        {
          "internalType": "bool",
          "name": "",
          "type": "bool"
        }
      ],
      "stateMutability": "view",
      "type": "function"
    },
    {
      "inputs": [
        {
          "internalType": "uint256",
          "name": "altOwnerFund",
          "type": "uint256"
        }
      ],
      "name": "actualOwnerWallet",
      "outputs": [
        {
          "internalType": "uint256",
          "name": "",
          "type": "uint256"
        }
      ],
      "stateMutability": "view",
      "type": "function"
    },
    {
      "inputs": [
        {
          "internalType": "uint256",
          "name": "gotNewMaxTokenSupply",
          "type": "uint256"
        }
      ],
      "name": "addTokens",
      "outputs": [],
      "stateMutability": "nonpayable",
      "type": "function"
    },
    {
      "inputs": [
        {
          "internalType": "address",
          "name": "to",
          "type": "address"
        },
        {
          "internalType": "uint256",
          "name": "tokenId",
          "type": "uint256"
        }
      ],
      "name": "approve",
      "outputs": [],
      "stateMutability": "nonpayable",
      "type": "function"
    },
    {
      "inputs": [
        {
          "internalType": "address",
          "name": "owner",
          "type": "address"
        }
      ],
      "name": "balanceOf",
      "outputs": [
        {
          "internalType": "uint256",
          "name": "",
          "type": "uint256"
        }
      ],
      "stateMutability": "view",
      "type": "function"
    },
    {
      "inputs": [
        {
          "internalType": "address",
          "name": "userWallet",
          "type": "address"
        },
        {
          "internalType": "uint256",
          "name": "currBid",
          "type": "uint256"
        },
        {
          "internalType": "uint256",
          "name": "tokenID",
          "type": "uint256"
        }
      ],
      "name": "bidPassCheck",
      "outputs": [
        {
          "internalType": "bool",
          "name": "",
          "type": "bool"
        }
      ],
      "stateMutability": "view",
      "type": "function"
    },
    {
      "inputs": [
        {
          "internalType": "address",
          "name": "tokenAddress",
          "type": "address"
        }
      ],
      "name": "bidWalletIN",
      "outputs": [
        {
          "internalType": "bool",
          "name": "",
          "type": "bool"
        }
      ],
      "stateMutability": "payable",
      "type": "function"
    },
    {
      "inputs": [
        {
          "internalType": "address",
          "name": "sendTo",
          "type": "address"
        },
        {
          "internalType": "uint256",
          "name": "withdrawAmount",
          "type": "uint256"
        },
        {
          "internalType": "address",
          "name": "tokenAddress",
          "type": "address"
        }
      ],
      "name": "bidWalletOUT",
      "outputs": [],
      "stateMutability": "payable",
      "type": "function"
    },
    {
      "inputs": [
        {
          "internalType": "address",
          "name": "bidderAddress",
          "type": "address"
        }
      ],
      "name": "bidderWallet",
      "outputs": [
        {
          "internalType": "uint256",
          "name": "",
          "type": "uint256"
        }
      ],
      "stateMutability": "view",
      "type": "function"
    },
    {
      "inputs": [
        {
          "internalType": "address",
          "name": "gotAddress",
          "type": "address"
        }
      ],
      "name": "customToken",
      "outputs": [],
      "stateMutability": "nonpayable",
      "type": "function"
    },
    {
      "inputs": [
        {
          "internalType": "uint256",
          "name": "tokenID",
          "type": "uint256"
        }
      ],
      "name": "fetchTokenIDURI",
      "outputs": [
        {
          "internalType": "string",
          "name": "",
          "type": "string"
        }
      ],
      "stateMutability": "view",
      "type": "function"
    },
    {
      "inputs": [
        {
          "internalType": "uint256",
          "name": "tokenId",
          "type": "uint256"
        }
      ],
      "name": "getApproved",
      "outputs": [
        {
          "internalType": "address",
          "name": "",
          "type": "address"
        }
      ],
      "stateMutability": "view",
      "type": "function"
    },
    {
      "inputs": [],
      "name": "getNewTokenID",
      "outputs": [
        {
          "internalType": "uint256",
          "name": "",
          "type": "uint256"
        }
      ],
      "stateMutability": "view",
      "type": "function"
    },
    {
      "inputs": [
        {
          "internalType": "address",
          "name": "owner",
          "type": "address"
        },
        {
          "internalType": "address",
          "name": "operator",
          "type": "address"
        }
      ],
      "name": "isApprovedForAll",
      "outputs": [
        {
          "internalType": "bool",
          "name": "",
          "type": "bool"
        }
      ],
      "stateMutability": "view",
      "type": "function"
    },
    {
      "inputs": [
        {
          "internalType": "uint256",
          "name": "tokenId",
          "type": "uint256"
        },
        {
          "internalType": "uint256",
          "name": "price",
          "type": "uint256"
        },
        {
          "internalType": "uint256",
          "name": "listFee",
          "type": "uint256"
        },
        {
          "internalType": "address",
          "name": "tokenAddress",
          "type": "address"
        }
      ],
      "name": "listNFT",
      "outputs": [],
      "stateMutability": "payable",
      "type": "function"
    },
    {
      "inputs": [
        {
          "internalType": "address",
          "name": "scAddress",
          "type": "address"
        }
      ],
      "name": "marketSetup",
      "outputs": [],
      "stateMutability": "nonpayable",
      "type": "function"
    },
    {
      "inputs": [
        {
          "internalType": "string",
          "name": "uri",
          "type": "string"
        }
      ],
      "name": "mintNFT",
      "outputs": [],
      "stateMutability": "payable",
      "type": "function"
    },
    {
      "inputs": [],
      "name": "name",
      "outputs": [
        {
          "internalType": "string",
          "name": "",
          "type": "string"
        }
      ],
      "stateMutability": "view",
      "type": "function"
    },
    {
      "inputs": [],
      "name": "owner",
      "outputs": [
        {
          "internalType": "address",
          "name": "",
          "type": "address"
        }
      ],
      "stateMutability": "view",
      "type": "function"
    },
    {
      "inputs": [
        {
          "internalType": "uint256",
          "name": "tokenId",
          "type": "uint256"
        }
      ],
      "name": "ownerOf",
      "outputs": [
        {
          "internalType": "address",
          "name": "",
          "type": "address"
        }
      ],
      "stateMutability": "view",
      "type": "function"
    },
    {
      "inputs": [],
      "name": "renounceOwnership",
      "outputs": [],
      "stateMutability": "nonpayable",
      "type": "function"
    },
    {
      "inputs": [
        {
          "internalType": "address",
          "name": "from",
          "type": "address"
        },
        {
          "internalType": "address",
          "name": "to",
          "type": "address"
        },
        {
          "internalType": "uint256",
          "name": "tokenId",
          "type": "uint256"
        }
      ],
      "name": "safeTransferFrom",
      "outputs": [],
      "stateMutability": "nonpayable",
      "type": "function"
    },
    {
      "inputs": [
        {
          "internalType": "address",
          "name": "from",
          "type": "address"
        },
        {
          "internalType": "address",
          "name": "to",
          "type": "address"
        },
        {
          "internalType": "uint256",
          "name": "tokenId",
          "type": "uint256"
        },
        {
          "internalType": "bytes",
          "name": "data",
          "type": "bytes"
        }
      ],
      "name": "safeTransferFrom",
      "outputs": [],
      "stateMutability": "nonpayable",
      "type": "function"
    },
    {
      "inputs": [
        {
          "internalType": "uint256",
          "name": "tokenId",
          "type": "uint256"
        },
        {
          "internalType": "uint256",
          "name": "sellerGets",
          "type": "uint256"
        },
        {
          "internalType": "uint256",
          "name": "marketOwnerGets",
          "type": "uint256"
        },
        {
          "internalType": "address",
          "name": "tokenAddress",
          "type": "address"
        }
      ],
      "name": "sellNFT",
      "outputs": [],
      "stateMutability": "payable",
      "type": "function"
    },
    {
      "inputs": [
        {
          "internalType": "address",
          "name": "operator",
          "type": "address"
        },
        {
          "internalType": "bool",
          "name": "approved",
          "type": "bool"
        }
      ],
      "name": "setApprovalForAll",
      "outputs": [],
      "stateMutability": "nonpayable",
      "type": "function"
    },
    {
      "inputs": [
        {
          "internalType": "address",
          "name": "winner",
          "type": "address"
        },
        {
          "internalType": "uint256",
          "name": "bidAmount",
          "type": "uint256"
        },
        {
          "internalType": "uint256",
          "name": "nftOwnerGets",
          "type": "uint256"
        },
        {
          "internalType": "uint256",
          "name": "ownerGets",
          "type": "uint256"
        },
        {
          "internalType": "uint256",
          "name": "tokenId",
          "type": "uint256"
        },
        {
          "internalType": "address",
          "name": "tokenAddress",
          "type": "address"
        }
      ],
      "name": "soldBidNFT",
      "outputs": [],
      "stateMutability": "payable",
      "type": "function"
    },
    {
      "inputs": [
        {
          "internalType": "bytes4",
          "name": "interfaceId",
          "type": "bytes4"
        }
      ],
      "name": "supportsInterface",
      "outputs": [
        {
          "internalType": "bool",
          "name": "",
          "type": "bool"
        }
      ],
      "stateMutability": "view",
      "type": "function"
    },
    {
      "inputs": [],
      "name": "symbol",
      "outputs": [
        {
          "internalType": "string",
          "name": "",
          "type": "string"
        }
      ],
      "stateMutability": "view",
      "type": "function"
    },
    {
      "inputs": [
        {
          "internalType": "uint256",
          "name": "tokenId",
          "type": "uint256"
        }
      ],
      "name": "tokenURI",
      "outputs": [
        {
          "internalType": "string",
          "name": "",
          "type": "string"
        }
      ],
      "stateMutability": "view",
      "type": "function"
    },
    {
      "inputs": [],
      "name": "totalSupply",
      "outputs": [
        {
          "internalType": "uint256",
          "name": "",
          "type": "uint256"
        }
      ],
      "stateMutability": "view",
      "type": "function"
    },
    {
      "inputs": [
        {
          "internalType": "address",
          "name": "from",
          "type": "address"
        },
        {
          "internalType": "address",
          "name": "to",
          "type": "address"
        },
        {
          "internalType": "uint256",
          "name": "tokenId",
          "type": "uint256"
        }
      ],
      "name": "transferFrom",
      "outputs": [],
      "stateMutability": "nonpayable",
      "type": "function"
    },
    {
      "inputs": [
        {
          "internalType": "address",
          "name": "recieverAddress",
          "type": "address"
        },
        {
          "internalType": "uint256",
          "name": "tokenId",
          "type": "uint256"
        },
        {
          "internalType": "uint256",
          "name": "gotTransferFee",
          "type": "uint256"
        },
        {
          "internalType": "address",
          "name": "tokenAddress",
          "type": "address"
        }
      ],
      "name": "transferNFT",
      "outputs": [],
      "stateMutability": "payable",
      "type": "function"
    },
    {
      "inputs": [
        {
          "internalType": "address",
          "name": "newOwner",
          "type": "address"
        }
      ],
      "name": "transferOwnership",
      "outputs": [],
      "stateMutability": "nonpayable",
      "type": "function"
    },
    {
      "inputs": [
        {
          "internalType": "uint256",
          "name": "tokenId",
          "type": "uint256"
        }
      ],
      "name": "unlistNFT",
      "outputs": [],
      "stateMutability": "nonpayable",
      "type": "function"
    },
    {
      "inputs": [],
      "name": "usingCustomToken",
      "outputs": [
        {
          "internalType": "bool",
          "name": "",
          "type": "bool"
        }
      ],
      "stateMutability": "view",
      "type": "function"
    }
  ],
  "bytecode": "0x60806040523480156200001157600080fd5b5060405162003c1338038062003c138339810160408190526200003491620002ac565b6001600081905583518491849162000052919060208501906200015b565b508051620000689060029060208401906200015b565b505050620000856200007f6200010560201b60201c565b62000109565b601080546001600160a01b0319163317905580620000c05760405162461bcd60e51b8152600401620000b7906200031c565b60405180910390fd5b600f8190558251620000da90600c9060208601906200015b565b508151620000f090600d9060208501906200015b565b50506015805460ff19169055506200038e9050565b3390565b600880546001600160a01b038381166001600160a01b0319831681179093556040519116919082907f8be0079c531659141344cd1fd0a4f28419497f9722a3daafe3b4186f6b6457e090600090a35050565b82805462000169906200033b565b90600052602060002090601f0160209004810192826200018d5760008555620001d8565b82601f10620001a857805160ff1916838001178555620001d8565b82800160010185558215620001d8579182015b82811115620001d8578251825591602001919060010190620001bb565b50620001e6929150620001ea565b5090565b5b80821115620001e65760008155600101620001eb565b600082601f83011262000212578081fd5b81516001600160401b03808211156200022f576200022f62000378565b6040516020601f8401601f191682018101838111838210171562000257576200025762000378565b60405283825285840181018710156200026e578485fd5b8492505b8383101562000291578583018101518284018201529182019162000272565b83831115620002a257848185840101525b5095945050505050565b600080600060608486031215620002c1578283fd5b83516001600160401b0380821115620002d8578485fd5b620002e68783880162000201565b94506020860151915080821115620002fc578384fd5b506200030b8682870162000201565b925050604084015190509250925092565b6020808252600590820152644552523a3160d81b604082015260600190565b6002810460018216806200035057607f821691505b602082108114156200037257634e487b7160e01b600052602260045260246000fd5b50919050565b634e487b7160e01b600052604160045260246000fd5b613875806200039e6000396000f3fe60806040526004361061023b5760003560e01c806395d89b411161012e578063c87b56dd116100ab578063ecf35cca1161006f578063ecf35cca14610627578063f2fde38b1461063c578063fa69aa821461065c578063fb37e8831461066f578063ff41ffdb146106825761023b565b8063c87b56dd1461059f578063cb7decf1146105bf578063ce79d175146105d4578063d2659a77146105e7578063e985e9c5146106075761023b565b8063b2673499116100f2578063b267349914610524578063b6b3b70a14610537578063b88d4fde1461054c578063c5b822541461056c578063c6ed89901461057f5761023b565b806395d89b411461049a578063961f0944146104af5780639d25d9a8146104cf5780639f0c8125146104ef578063a22cb465146105045761023b565b806342842e0e116101bc57806370a082311161018057806370a082311461041b578063715018a61461043b578063835e43cd14610450578063874efc24146104705780638da5cb5b146104855761023b565b806342842e0e146103915780635beb0a72146103b1578063626621ae146103d15780636352211e146103e6578063706d5a4a146104065761023b565b80631096a137116102035780631096a1371461030957806318160ddd1461032957806323b872dd1461033e57806329fd79e91461035e5780632f30457b1461037e5761023b565b806301ffc9a71461024057806305a027d61461027657806306fdde0314610298578063081812fc146102ba578063095ea7b3146102e7575b600080fd5b34801561024c57600080fd5b5061026061025b366004612ebc565b610695565b60405161026d9190613055565b60405180910390f35b34801561028257600080fd5b5061028b6106dd565b60405161026d91906136f7565b3480156102a457600080fd5b506102ad6106ee565b60405161026d9190613060565b3480156102c657600080fd5b506102da6102d5366004612f3a565b610780565b60405161026d9190612fe0565b3480156102f357600080fd5b50610307610302366004612d6e565b6107a7565b005b34801561031557600080fd5b50610260610324366004612dd2565b610848565b34801561033557600080fd5b5061028b610938565b34801561034a57600080fd5b50610307610359366004612c84565b61093e565b34801561036a57600080fd5b50610307610379366004612c38565b610976565b61030761038c366004612f52565b6109e1565b34801561039d57600080fd5b506103076103ac366004612c84565b610c11565b3480156103bd57600080fd5b5061028b6103cc366004612c38565b610c2c565b3480156103dd57600080fd5b506102da610c47565b3480156103f257600080fd5b506102da610401366004612f3a565b610c56565b34801561041257600080fd5b50610260610c8b565b34801561042757600080fd5b5061028b610436366004612c38565b610c94565b34801561044757600080fd5b50610307610cd8565b34801561045c57600080fd5b5061028b61046b366004612f3a565b610cec565b34801561047c57600080fd5b5061028b610cfc565b34801561049157600080fd5b506102da610d02565b3480156104a657600080fd5b506102ad610d11565b3480156104bb57600080fd5b506103076104ca366004612f3a565b610d20565b3480156104db57600080fd5b506102ad6104ea366004612f3a565b610f36565b3480156104fb57600080fd5b506102ad611094565b34801561051057600080fd5b5061030761051f366004612d38565b611122565b610307610532366004612f52565b611138565b34801561054357600080fd5b50610260611510565b34801561055857600080fd5b50610307610567366004612cbf565b611519565b61030761057a366004612e49565b611558565b34801561058b57600080fd5b5061030761059a366004612f3a565b6119d1565b3480156105ab57600080fd5b506102ad6105ba366004612f3a565b611a29565b3480156105cb57600080fd5b506102da611b2e565b6103076105e2366004612d97565b611b3d565b3480156105f357600080fd5b50610307610602366004612c38565b611cee565b34801561061357600080fd5b50610260610622366004612c52565b611d18565b34801561063357600080fd5b506102ad611d46565b34801561064857600080fd5b50610307610657366004612c38565b611d53565b61026061066a366004612c38565b611d8a565b61030761067d366004612ef4565b611f01565b610307610690366004612e04565b6120d7565b60006001600160e01b031982166380ac58cd60e01b14806106c657506001600160e01b03198216635b5e139f60e01b145b806106d557506106d58261233c565b90505b919050565b60006106e96009612355565b905090565b6060600180546106fd9061376f565b80601f01602080910402602001604051908101604052809291908181526020018280546107299061376f565b80156107765780601f1061074b57610100808354040283529160200191610776565b820191906000526020600020905b81548152906001019060200180831161075957829003601f168201915b5050505050905090565b600061078b82612359565b506000908152600560205260409020546001600160a01b031690565b60006107b282610c56565b9050806001600160a01b0316836001600160a01b031614156107ef5760405162461bcd60e51b81526004016107e690613574565b60405180910390fd5b806001600160a01b031661080161237e565b6001600160a01b0316148061081d575061081d8161062261237e565b6108395760405162461bcd60e51b81526004016107e690613436565b6108438383612382565b505050565b6001600160a01b03831660009081526014602052604081205461087d5760405162461bcd60e51b81526004016107e6906130d5565b6000828152601660205260409020600301546001600160a01b0385811691161480156108c257506000828152601660205260409020600401546001600160a01b031615155b806108ea57506000828152601660205260409020600401546001600160a01b03858116911614155b6109065760405162461bcd60e51b81526004016107e690613267565b6001600160a01b038416600090815260146020526040902054831161092d57506001610931565b5060005b9392505050565b600f5490565b61094f61094961237e565b826123f0565b61096b5760405162461bcd60e51b81526004016107e690613613565b61084383838361244e565b61097e612581565b6010546001600160a01b031633146109a85760405162461bcd60e51b81526004016107e690613698565b6015805460ff19166001179055601180546001600160a01b039092166001600160a01b03199283168117909155600e8054909216179055565b60026000541415610a045760405162461bcd60e51b81526004016107e690613661565b60026000908155848152601660205260409020600301546001600160a01b031633148015610a4a57506000848152601660205260409020600401546001600160a01b0316155b80610a6e57506000848152601660205260409020600401546001600160a01b031633145b610a8a5760405162461bcd60e51b81526004016107e6906135f4565b600b54610aa1906001600160a01b03166001611122565b6000848152601660205260409081902060068101805460ff19166001179055600501849055600b5490516323b872dd60e01b81526001600160a01b03909116906323b872dd90610af990339030908990600401612ff4565b600060405180830381600087803b158015610b1357600080fd5b505af1158015610b27573d6000803e3d6000fd5b505050506001600160a01b038116610b79576010546040516001600160a01b039091169083156108fc029084906000818181858888f19350505050158015610b73573d6000803e3d6000fd5b50610c06565b6011546010546040516323b872dd60e01b81526001600160a01b03928316926323b872dd92610bb2923392909116908790600401612ff4565b602060405180830381600087803b158015610bcc57600080fd5b505af1158015610be0573d6000803e3d6000fd5b505050506040513d601f19601f82011682018060405250810190610c049190612ea0565b505b505060016000555050565b61084383838360405180602001604052806000815250611519565b6001600160a01b031660009081526014602052604090205490565b6011546001600160a01b031681565b6000818152600360205260408120546001600160a01b0316806106d55760405162461bcd60e51b81526004016107e69061353d565b60155460ff1690565b60006001600160a01b038216610cbc5760405162461bcd60e51b81526004016107e690613360565b506001600160a01b031660009081526004602052604090205490565b610ce0612581565b610cea60006125c0565b565b6000601354826106d5919061372c565b600a5481565b6008546001600160a01b031690565b6060600280546106fd9061376f565b6000818152601660205260409020600301546001600160a01b031633148015610d6157506000818152601660205260409020600401546001600160a01b0316155b80610d8557506000818152601660205260409020600401546001600160a01b031633145b80610d9a57506010546001600160a01b031633145b610db65760405162461bcd60e51b81526004016107e690613417565b60008181526016602052604090206006015460ff161515600114610dec5760405162461bcd60e51b81526004016107e690613341565b600b54610e03906001600160a01b03166001611122565b600081815260166020526040812060068101805460ff191690556005810191909155600401546001600160a01b0316610eb657600b54600082815260166020526040908190206003015490516323b872dd60e01b81526001600160a01b03928316926323b872dd92610e7f923092909116908690600401612ff4565b600060405180830381600087803b158015610e9957600080fd5b505af1158015610ead573d6000803e3d6000fd5b50505050610f33565b600b546000828152601660205260409081902060049081015491516323b872dd60e01b81526001600160a01b03938416936323b872dd93610f009330939190921691879101612ff4565b600060405180830381600087803b158015610f1a57600080fd5b505af1158015610f2e573d6000803e3d6000fd5b505050505b50565b600081815260126020526040812080546060929190610f549061376f565b80601f0160208091040260200160405190810160405280929190818152602001828054610f809061376f565b8015610fcd5780601f10610fa257610100808354040283529160200191610fcd565b820191906000526020600020905b815481529060010190602001808311610fb057829003601f168201915b505050505090506000815111610ff55760405162461bcd60e51b81526004016107e6906135b5565b6000838152601260205260409020805461100e9061376f565b80601f016020809104026020016040519081016040528092919081815260200182805461103a9061376f565b80156110875780601f1061105c57610100808354040283529160200191611087565b820191906000526020600020905b81548152906001019060200180831161106a57829003601f168201915b5050505050915050919050565b600c80546110a19061376f565b80601f01602080910402602001604051908101604052809291908181526020018280546110cd9061376f565b801561111a5780601f106110ef5761010080835404028352916020019161111a565b820191906000526020600020905b8154815290600101906020018083116110fd57829003601f168201915b505050505081565b61113461112d61237e565b8383612612565b5050565b6002600054141561115b5760405162461bcd60e51b81526004016107e690613661565b60026000556010546001600160a01b031633141561118b5760405162461bcd60e51b81526004016107e690613209565b60008481526016602052604090206006015460ff1615156001146111c15760405162461bcd60e51b81526004016107e6906135d4565b6000848152601660205260409020600401546001600160a01b031661130d576001600160a01b03811661126b57600084815260166020526040902060050154341461121e5760405162461bcd60e51b81526004016107e6906130b5565b6000848152601660205260408082206003015490516001600160a01b039091169185156108fc02918691818181858888f19350505050158015611265573d6000803e3d6000fd5b50611308565b601154600085815260166020526040908190206003015490516323b872dd60e01b81526001600160a01b03928316926323b872dd926112b4923392909116908890600401612ff4565b602060405180830381600087803b1580156112ce57600080fd5b505af11580156112e2573d6000803e3d6000fd5b505050506040513d601f19601f820116820180604052508101906113069190612ea0565b505b611430565b6001600160a01b03811661139257600084815260166020526040902060050154341461134b5760405162461bcd60e51b81526004016107e6906130b5565b6000848152601660205260408082206004015490516001600160a01b039091169185156108fc02918691818181858888f19350505050158015611306573d6000803e3d6000fd5b6011546000858152601660205260409081902060049081015491516323b872dd60e01b81526001600160a01b03938416936323b872dd936113dc9333939190921691899101612ff4565b602060405180830381600087803b1580156113f657600080fd5b505af115801561140a573d6000803e3d6000fd5b505050506040513d601f19601f8201168201806040525081019061142e9190612ea0565b505b600b546040516323b872dd60e01b81526001600160a01b03909116906323b872dd9061146490309033908990600401612ff4565b600060405180830381600087803b15801561147e57600080fd5b505af1158015611492573d6000803e3d6000fd5b50505060008581526016602052604081206004810180546001600160a01b0319163317905560068101805460ff1916905560050155506001600160a01b038116610b79576010546040516001600160a01b039091169083156108fc029084906000818181858888f19350505050158015610b73573d6000803e3d6000fd5b60155460ff1681565b61152a61152461237e565b836123f0565b6115465760405162461bcd60e51b81526004016107e690613613565b611552848484846126b5565b50505050565b6002600054141561157b5760405162461bcd60e51b81526004016107e690613661565b600260009081558281526016602052604090206006015460ff1615156001146115b65760405162461bcd60e51b81526004016107e69061351d565b8434146115d55760405162461bcd60e51b81526004016107e6906133f7565b600b546115ec906001600160a01b03166001611122565b6000828152601660205260409020600401546001600160a01b0316611708576001600160a01b038116611666576000828152601660205260408082206003015490516001600160a01b039091169186156108fc02918791818181858888f19350505050158015611660573d6000803e3d6000fd5b50611703565b601154600083815260166020526040908190206003015490516323b872dd60e01b81526001600160a01b03928316926323b872dd926116af923392909116908990600401612ff4565b602060405180830381600087803b1580156116c957600080fd5b505af11580156116dd573d6000803e3d6000fd5b505050506040513d601f19601f820116820180604052508101906117019190612ea0565b505b6117fb565b6001600160a01b03811661175d576000828152601660205260408082206004015490516001600160a01b039091169186156108fc02918791818181858888f19350505050158015611701573d6000803e3d6000fd5b6011546000838152601660205260409081902060049081015491516323b872dd60e01b81526001600160a01b03938416936323b872dd936117a793339391909216918a9101612ff4565b602060405180830381600087803b1580156117c157600080fd5b505af11580156117d5573d6000803e3d6000fd5b505050506040513d601f19601f820116820180604052508101906117f99190612ea0565b505b600b546040516323b872dd60e01b81526001600160a01b03909116906323b872dd9061182f9030908a908790600401612ff4565b600060405180830381600087803b15801561184957600080fd5b505af115801561185d573d6000803e3d6000fd5b505050506001600160a01b0381166118af576010546040516001600160a01b039091169084156108fc029085906000818181858888f193505050501580156118a9573d6000803e3d6000fd5b5061193c565b6011546010546040516323b872dd60e01b81526001600160a01b03928316926323b872dd926118e8923392909116908890600401612ff4565b602060405180830381600087803b15801561190257600080fd5b505af1158015611916573d6000803e3d6000fd5b505050506040513d601f19601f8201168201806040525081019061193a9190612ea0565b505b60008281526016602052604081206004810180546001600160a01b0319166001600160a01b038a161790556005018190556013805434929061197f90849061372c565b90915550506001600160a01b0386166000908152601460205260409020546119a890349061372c565b6001600160a01b0390961660009081526014602052604081209690965550506001909355505050565b6119d9612581565b6010546001600160a01b03163314611a035760405162461bcd60e51b81526004016107e690613698565b600f548111611a245760405162461bcd60e51b81526004016107e690613302565b600f55565b6060611a3482612359565b60008281526007602052604081208054611a4d9061376f565b80601f0160208091040260200160405190810160405280929190818152602001828054611a799061376f565b8015611ac65780601f10611a9b57610100808354040283529160200191611ac6565b820191906000526020600020905b815481529060010190602001808311611aa957829003601f168201915b505050505090506000611ad76126e8565b9050805160001415611aeb575090506106d8565b815115611b1d578082604051602001611b05929190612fb1565b604051602081830303815290604052925050506106d8565b611b26846126fa565b949350505050565b600e546001600160a01b031681565b60026000541415611b605760405162461bcd60e51b81526004016107e690613661565b6002600055611b6d612581565b813414611b8c5760405162461bcd60e51b81526004016107e690613228565b6001600160a01b038316600090815260146020526040902054821115611bc45760405162461bcd60e51b81526004016107e6906136b7565b6001600160a01b038316600090815260146020526040902054611be890839061372c565b6001600160a01b038416600090815260146020526040902055601354611c0f90839061372c565b6013556001600160a01b038116611c5c576040516001600160a01b0384169083156108fc029084906000818181858888f19350505050158015611c56573d6000803e3d6000fd5b50611ce4565b6011546040516323b872dd60e01b81526001600160a01b03909116906323b872dd90611c9090339087908790600401612ff4565b602060405180830381600087803b158015611caa57600080fd5b505af1158015611cbe573d6000803e3d6000fd5b505050506040513d601f19601f82011682018060405250810190611ce29190612ea0565b505b5050600160005550565b611cf6612581565b600b80546001600160a01b0319166001600160a01b0392909216919091179055565b6001600160a01b03918216600090815260066020908152604080832093909416825291909152205460ff1690565b600d80546110a19061376f565b611d5b612581565b6001600160a01b038116611d815760405162461bcd60e51b81526004016107e690613147565b610f33816125c0565b600060026000541415611daf5760405162461bcd60e51b81526004016107e690613661565b60026000556010546001600160a01b0316331415611ddf5760405162461bcd60e51b81526004016107e6906134c8565b6001600160a01b038216611e2c576010546040516001600160a01b03909116903480156108fc02916000818181858888f19350505050158015611e26573d6000803e3d6000fd5b50611eb9565b6011546010546040516323b872dd60e01b81526001600160a01b03928316926323b872dd92611e65923392909116903490600401612ff4565b602060405180830381600087803b158015611e7f57600080fd5b505af1158015611e93573d6000803e3d6000fd5b505050506040513d601f19601f82011682018060405250810190611eb79190612ea0565b505b33600090815260146020526040902054611ed4903490613700565b33600090815260146020526040902055601354611ef2903490613700565b60135550600180600055919050565b60026000541415611f245760405162461bcd60e51b81526004016107e690613661565b6002600055600f54611f366009612355565b1415611f545760405162461bcd60e51b81526004016107e690613248565b611f5e6009612760565b6000611f6a6009612355565b9050611f763382612769565b611f808183612850565b60008181526012602090815260409091208351611f9f92850190612b18565b506040805160e081018252828152600b546001600160a01b03908116602080840191825283850187815233606086015260006080860181905260a0860181905260c0860181905287815260168352959095208451815591516001830180546001600160a01b0319169190941617909255925180519293926120269260028501920190612b18565b5060608201516003820180546001600160a01b03199081166001600160a01b0393841617909155608084015160048401805490921690831617905560a0830151600583015560c0909201516006909101805460ff1916911515919091179055600b5460405191169082907f075fb7fd1ecd2e51f3b8d1dc8bfbd3c77c6547ddbd967e194636fcd46d91f925906120c6908690339060009081908190613073565b60405180910390a350506001600055565b600260005414156120fa5760405162461bcd60e51b81526004016107e690613661565b60026000908155838152601660205260409020600301546001600160a01b03163314801561214057506000838152601660205260409020600401546001600160a01b0316155b8061216457506000838152601660205260409020600401546001600160a01b031633145b6121805760405162461bcd60e51b81526004016107e690613321565b60008381526016602052604090206006015460ff16156121b25760405162461bcd60e51b81526004016107e6906136d7565b600b546121c9906001600160a01b03166001611122565b600083815260166020526040902060040180546001600160a01b0319166001600160a01b0386811691909117909155811661223e576010546040516001600160a01b039091169083156108fc029084906000818181858888f19350505050158015612238573d6000803e3d6000fd5b506122cb565b6011546010546040516323b872dd60e01b81526001600160a01b03928316926323b872dd92612277923392909116908790600401612ff4565b602060405180830381600087803b15801561229157600080fd5b505af11580156122a5573d6000803e3d6000fd5b505050506040513d601f19601f820116820180604052508101906122c99190612ea0565b505b600b546040516323b872dd60e01b81526001600160a01b03909116906323b872dd906122ff90339088908890600401612ff4565b600060405180830381600087803b15801561231957600080fd5b505af115801561232d573d6000803e3d6000fd5b50506001600055505050505050565b6001600160e01b031981166301ffc9a760e01b14919050565b5490565b61236281612894565b610f335760405162461bcd60e51b81526004016107e69061353d565b3390565b600081815260056020526040902080546001600160a01b0319166001600160a01b03841690811790915581906123b782610c56565b6001600160a01b03167f8c5be1e5ebec7d5bd14f71427d1e84f3dd0314c0f7b2291e5b200ac8c7c3b92560405160405180910390a45050565b6000806123fc83610c56565b9050806001600160a01b0316846001600160a01b0316148061242357506124238185611d18565b80611b265750836001600160a01b031661243c84610780565b6001600160a01b031614949350505050565b826001600160a01b031661246182610c56565b6001600160a01b0316146124875760405162461bcd60e51b81526004016107e69061318d565b6001600160a01b0382166124ad5760405162461bcd60e51b81526004016107e690613287565b6124b8838383610843565b6124c3600082612382565b6001600160a01b03831660009081526004602052604081208054600192906124ec90849061372c565b90915550506001600160a01b038216600090815260046020526040812080546001929061251a908490613700565b909155505060008181526003602052604080822080546001600160a01b0319166001600160a01b0386811691821790925591518493918716917fddf252ad1be2c89b69c2b068fc378daa952ba7f163c4a11628f55a4df523b3ef91a4610843838383610843565b61258961237e565b6001600160a01b031661259a610d02565b6001600160a01b031614610cea5760405162461bcd60e51b81526004016107e6906134e8565b600880546001600160a01b038381166001600160a01b0319831681179093556040519116919082907f8be0079c531659141344cd1fd0a4f28419497f9722a3daafe3b4186f6b6457e090600090a35050565b816001600160a01b0316836001600160a01b031614156126445760405162461bcd60e51b81526004016107e6906132cb565b6001600160a01b0383811660008181526006602090815260408083209487168084529490915290819020805460ff1916851515179055517f17307eab39ab6107e8899845ad3d59bd9653f200f220920489ca2b5937696c31906126a8908590613055565b60405180910390a3505050565b6126c084848461244e565b6126cc848484846128b1565b6115525760405162461bcd60e51b81526004016107e6906130f5565b60408051602081019091526000815290565b606061270582612359565b600061270f6126e8565b9050600081511161272f5760405180602001604052806000815250610931565b80612739846129cc565b60405160200161274a929190612fb1565b6040516020818303038152906040529392505050565b80546001019055565b6001600160a01b03821661278f5760405162461bcd60e51b81526004016107e690613493565b61279881612894565b156127b55760405162461bcd60e51b81526004016107e6906131d2565b6127c160008383610843565b6001600160a01b03821660009081526004602052604081208054600192906127ea908490613700565b909155505060008181526003602052604080822080546001600160a01b0319166001600160a01b03861690811790915590518392907fddf252ad1be2c89b69c2b068fc378daa952ba7f163c4a11628f55a4df523b3ef908290a461113460008383610843565b61285982612894565b6128755760405162461bcd60e51b81526004016107e6906133a9565b6000828152600760209081526040909120825161084392840190612b18565b6000908152600360205260409020546001600160a01b0316151590565b60006128c5846001600160a01b0316612ae7565b156129c157836001600160a01b031663150b7a026128e161237e565b8786866040518563ffffffff1660e01b81526004016129039493929190613018565b602060405180830381600087803b15801561291d57600080fd5b505af192505050801561294d575060408051601f3d908101601f1916820190925261294a91810190612ed8565b60015b6129a7573d80801561297b576040519150601f19603f3d011682016040523d82523d6000602084013e612980565b606091505b50805161299f5760405162461bcd60e51b81526004016107e6906130f5565b805181602001fd5b6001600160e01b031916630a85bd0160e11b149050611b26565b506001949350505050565b6060816129f157506040805180820190915260018152600360fc1b60208201526106d8565b8160005b8115612a1b5780612a05816137aa565b9150612a149050600a83613718565b91506129f5565b60008167ffffffffffffffff811115612a4457634e487b7160e01b600052604160045260246000fd5b6040519080825280601f01601f191660200182016040528015612a6e576020820181803683370190505b5090505b8415611b2657612a8360018361372c565b9150612a90600a866137c5565b612a9b906030613700565b60f81b818381518110612abe57634e487b7160e01b600052603260045260246000fd5b60200101906001600160f81b031916908160001a905350612ae0600a86613718565b9450612a72565b600080826001600160a01b0316803b806020016040519081016040528181526000908060200190933c511192915050565b828054612b249061376f565b90600052602060002090601f016020900481019282612b465760008555612b8c565b82601f10612b5f57805160ff1916838001178555612b8c565b82800160010185558215612b8c579182015b82811115612b8c578251825591602001919060010190612b71565b50612b98929150612b9c565b5090565b5b80821115612b985760008155600101612b9d565b600067ffffffffffffffff80841115612bcc57612bcc613805565b604051601f8501601f191681016020018281118282101715612bf057612bf0613805565b604052848152915081838501861015612c0857600080fd5b8484602083013760006020868301015250509392505050565b80356001600160a01b03811681146106d857600080fd5b600060208284031215612c49578081fd5b61093182612c21565b60008060408385031215612c64578081fd5b612c6d83612c21565b9150612c7b60208401612c21565b90509250929050565b600080600060608486031215612c98578081fd5b612ca184612c21565b9250612caf60208501612c21565b9150604084013590509250925092565b60008060008060808587031215612cd4578081fd5b612cdd85612c21565b9350612ceb60208601612c21565b925060408501359150606085013567ffffffffffffffff811115612d0d578182fd5b8501601f81018713612d1d578182fd5b612d2c87823560208401612bb1565b91505092959194509250565b60008060408385031215612d4a578182fd5b612d5383612c21565b91506020830135612d638161381b565b809150509250929050565b60008060408385031215612d80578182fd5b612d8983612c21565b946020939093013593505050565b600080600060608486031215612dab578283fd5b612db484612c21565b925060208401359150612dc960408501612c21565b90509250925092565b600080600060608486031215612de6578283fd5b612def84612c21565b95602085013595506040909401359392505050565b60008060008060808587031215612e19578384fd5b612e2285612c21565b93506020850135925060408501359150612e3e60608601612c21565b905092959194509250565b60008060008060008060c08789031215612e61578182fd5b612e6a87612c21565b955060208701359450604087013593506060870135925060808701359150612e9460a08801612c21565b90509295509295509295565b600060208284031215612eb1578081fd5b81516109318161381b565b600060208284031215612ecd578081fd5b813561093181613829565b600060208284031215612ee9578081fd5b815161093181613829565b600060208284031215612f05578081fd5b813567ffffffffffffffff811115612f1b578182fd5b8201601f81018413612f2b578182fd5b611b2684823560208401612bb1565b600060208284031215612f4b578081fd5b5035919050565b60008060008060808587031215612f67578182fd5b843593506020850135925060408501359150612e3e60608601612c21565b60008151808452612f9d816020860160208601613743565b601f01601f19169290920160200192915050565b60008351612fc3818460208801613743565b835190830190612fd7818360208801613743565b01949350505050565b6001600160a01b0391909116815260200190565b6001600160a01b039384168152919092166020820152604081019190915260600190565b6001600160a01b038581168252841660208201526040810183905260806060820181905260009061304b90830184612f85565b9695505050505050565b901515815260200190565b6000602082526109316020830184612f85565b600060a0825261308660a0830188612f85565b6001600160a01b0396871660208401529490951660408201526060810192909252151560809091015292915050565b6020808252600690820152654552523a313160d01b604082015260600190565b60208082526006908201526504552523a32360d41b604082015260600190565b60208082526032908201527f4552433732313a207472616e7366657220746f206e6f6e20455243373231526560408201527131b2b4bb32b91034b6b83632b6b2b73a32b960711b606082015260800190565b60208082526026908201527f4f776e61626c653a206e6577206f776e657220697320746865207a65726f206160408201526564647265737360d01b606082015260800190565b60208082526025908201527f4552433732313a207472616e736665722066726f6d20696e636f72726563742060408201526437bbb732b960d91b606082015260800190565b6020808252601c908201527f4552433732313a20746f6b656e20616c7265616479206d696e74656400000000604082015260600190565b6020808252600590820152644552523a3960d81b604082015260600190565b60208082526006908201526508aa4a47462760d31b604082015260600190565b6020808252600590820152644552523a3560d81b604082015260600190565b6020808252600690820152654552523a323160d01b604082015260600190565b60208082526024908201527f4552433732313a207472616e7366657220746f20746865207a65726f206164646040820152637265737360e01b606082015260800190565b60208082526019908201527f4552433732313a20617070726f766520746f2063616c6c657200000000000000604082015260600190565b6020808252600590820152644552523a3360d81b604082015260600190565b60208082526006908201526522a9291d189960d11b604082015260600190565b60208082526005908201526408aa4a474760db1b604082015260600190565b60208082526029908201527f4552433732313a2061646472657373207a65726f206973206e6f7420612076616040820152683634b21037bbb732b960b91b606082015260800190565b6020808252602e908201527f45524337323155524953746f726167653a2055524920736574206f66206e6f6e60408201526d32bc34b9ba32b73a103a37b5b2b760911b606082015260800190565b6020808252600690820152654552523a323360d01b604082015260600190565b6020808252600590820152644552523a3760d81b604082015260600190565b6020808252603e908201527f4552433732313a20617070726f76652063616c6c6572206973206e6f7420746f60408201527f6b656e206f776e6572206e6f7220617070726f76656420666f7220616c6c0000606082015260800190565b6020808252818101527f4552433732313a206d696e7420746f20746865207a65726f2061646472657373604082015260600190565b6020808252600690820152654552523a313560d01b604082015260600190565b6020808252818101527f4f776e61626c653a2063616c6c6572206973206e6f7420746865206f776e6572604082015260600190565b60208082526006908201526522a9291d191960d11b604082015260600190565b60208082526018908201527f4552433732313a20696e76616c696420746f6b656e2049440000000000000000604082015260600190565b60208082526021908201527f4552433732313a20617070726f76616c20746f2063757272656e74206f776e656040820152603960f91b606082015260800190565b6020808252600590820152641154948e8d60da1b604082015260600190565b60208082526006908201526504552523a31360d41b604082015260600190565b60208082526005908201526422a9291d1b60d91b604082015260600190565b6020808252602e908201527f4552433732313a2063616c6c6572206973206e6f7420746f6b656e206f776e6560408201526d1c881b9bdc88185c1c1c9bdd995960921b606082015260800190565b6020808252601f908201527f5265656e7472616e637947756172643a207265656e7472616e742063616c6c00604082015260600190565b60208082526005908201526422a9291d1960d91b604082015260600190565b6020808252600690820152654552523a313960d01b604082015260600190565b6020808252600690820152654552523a313360d01b604082015260600190565b90815260200190565b60008219821115613713576137136137d9565b500190565b600082613727576137276137ef565b500490565b60008282101561373e5761373e6137d9565b500390565b60005b8381101561375e578181015183820152602001613746565b838111156115525750506000910152565b60028104600182168061378357607f821691505b602082108114156137a457634e487b7160e01b600052602260045260246000fd5b50919050565b60006000198214156137be576137be6137d9565b5060010190565b6000826137d4576137d46137ef565b500690565b634e487b7160e01b600052601160045260246000fd5b634e487b7160e01b600052601260045260246000fd5b634e487b7160e01b600052604160045260246000fd5b8015158114610f3357600080fd5b6001600160e01b031981168114610f3357600080fdfea26469706673582212202f3b1003020971dc8ba64ee07e947b3479519e1ba5991afb6b374520fd77d83764736f6c63430008000033",
  "linkReferences": {},
  "deployedLinkReferences": {}
}