{
  "_format": "hh-sol-artifact-1",
  "contractName": "NFTMarketplace",
  "sourceName": "contracts/NFTMarketplace.sol",
  "abi": [
    {
      "inputs": [
        {
          "internalType": "string",
          "name": "tokenName",
          "type": "string"
        },
        {
          "internalType": "string",
          "name": "tokenSymbol",
          "type": "string"
        },
        {
          "internalType": "uint256",
          "name": "gotMaxTokenSupply",
          "type": "uint256"
        }
      ],
      "stateMutability": "nonpayable",
      "type": "constructor"
    },
    {
      "anonymous": false,
      "inputs": [
        {
          "indexed": true,
          "internalType": "address",
          "name": "owner",
          "type": "address"
        },
        {
          "indexed": true,
          "internalType": "address",
          "name": "approved",
          "type": "address"
        },
        {
          "indexed": true,
          "internalType": "uint256",
          "name": "tokenId",
          "type": "uint256"
        }
      ],
      "name": "Approval",
      "type": "event"
    },
    {
      "anonymous": false,
      "inputs": [
        {
          "indexed": true,
          "internalType": "address",
          "name": "owner",
          "type": "address"
        },
        {
          "indexed": true,
          "internalType": "address",
          "name": "operator",
          "type": "address"
        },
        {
          "indexed": false,
          "internalType": "bool",
          "name": "approved",
          "type": "bool"
        }
      ],
      "name": "ApprovalForAll",
      "type": "event"
    },
    {
      "anonymous": false,
      "inputs": [
        {
          "indexed": true,
          "internalType": "uint256",
          "name": "tokenId",
          "type": "uint256"
        },
        {
          "indexed": true,
          "internalType": "address",
          "name": "nftContract",
          "type": "address"
        },
        {
          "indexed": false,
          "internalType": "string",
          "name": "uri",
          "type": "string"
        },
        {
          "indexed": false,
          "internalType": "address",
          "name": "creator",
          "type": "address"
        },
        {
          "indexed": false,
          "internalType": "address",
          "name": "owner",
          "type": "address"
        },
        {
          "indexed": false,
          "internalType": "uint256",
          "name": "price",
          "type": "uint256"
        },
        {
          "indexed": false,
          "internalType": "bool",
          "name": "forSale",
          "type": "bool"
        }
      ],
      "name": "MarketItemCreated",
      "type": "event"
    },
    {
      "anonymous": false,
      "inputs": [
        {
          "indexed": true,
          "internalType": "address",
          "name": "from",
          "type": "address"
        },
        {
          "indexed": true,
          "internalType": "address",
          "name": "to",
          "type": "address"
        },
        {
          "indexed": true,
          "internalType": "uint256",
          "name": "tokenId",
          "type": "uint256"
        }
      ],
      "name": "Transfer",
      "type": "event"
    },
    {
      "inputs": [],
      "name": "_bidIds",
      "outputs": [
        {
          "internalType": "uint256",
          "name": "_value",
          "type": "uint256"
        }
      ],
      "stateMutability": "view",
      "type": "function"
    },
    {
      "inputs": [],
      "name": "_tokenName",
      "outputs": [
        {
          "internalType": "string",
          "name": "",
          "type": "string"
        }
      ],
      "stateMutability": "view",
      "type": "function"
    },
    {
      "inputs": [],
      "name": "_tokenSymbol",
      "outputs": [
        {
          "internalType": "string",
          "name": "",
          "type": "string"
        }
      ],
      "stateMutability": "view",
      "type": "function"
    },
    {
      "inputs": [
        {
          "internalType": "uint256",
          "name": "altOwnerFund",
          "type": "uint256"
        }
      ],
      "name": "actualOwnerWallet",
      "outputs": [
        {
          "internalType": "uint256",
          "name": "",
          "type": "uint256"
        }
      ],
      "stateMutability": "view",
      "type": "function"
    },
    {
      "inputs": [
        {
          "internalType": "address",
          "name": "to",
          "type": "address"
        },
        {
          "internalType": "uint256",
          "name": "tokenId",
          "type": "uint256"
        }
      ],
      "name": "approve",
      "outputs": [],
      "stateMutability": "nonpayable",
      "type": "function"
    },
    {
      "inputs": [
        {
          "internalType": "address",
          "name": "owner",
          "type": "address"
        }
      ],
      "name": "balanceOf",
      "outputs": [
        {
          "internalType": "uint256",
          "name": "",
          "type": "uint256"
        }
      ],
      "stateMutability": "view",
      "type": "function"
    },
    {
      "inputs": [
        {
          "internalType": "address",
          "name": "userWallet",
          "type": "address"
        },
        {
          "internalType": "uint256",
          "name": "currBid",
          "type": "uint256"
        },
        {
          "internalType": "uint256",
          "name": "tokenID",
          "type": "uint256"
        }
      ],
      "name": "bidCheck",
      "outputs": [
        {
          "internalType": "bool",
          "name": "",
          "type": "bool"
        }
      ],
      "stateMutability": "view",
      "type": "function"
    },
    {
      "inputs": [
        {
          "internalType": "address",
          "name": "winner",
          "type": "address"
        },
        {
          "internalType": "uint256",
          "name": "bidAmount",
          "type": "uint256"
        },
        {
          "internalType": "uint256",
          "name": "nftOwnerGets",
          "type": "uint256"
        },
        {
          "internalType": "uint256",
          "name": "ownerGets",
          "type": "uint256"
        },
        {
          "internalType": "uint256",
          "name": "tokenId",
          "type": "uint256"
        }
      ],
      "name": "bidWon",
      "outputs": [],
      "stateMutability": "payable",
      "type": "function"
    },
    {
      "inputs": [
        {
          "internalType": "string",
          "name": "uri",
          "type": "string"
        }
      ],
      "name": "createMarketItem",
      "outputs": [],
      "stateMutability": "payable",
      "type": "function"
    },
    {
      "inputs": [
        {
          "internalType": "uint256",
          "name": "tokenId",
          "type": "uint256"
        },
        {
          "internalType": "uint256",
          "name": "marketItemPrice",
          "type": "uint256"
        },
        {
          "internalType": "uint256",
          "name": "sellerGets",
          "type": "uint256"
        },
        {
          "internalType": "uint256",
          "name": "marketOwnerGets",
          "type": "uint256"
        }
      ],
      "name": "directBuyMarketItem",
      "outputs": [],
      "stateMutability": "payable",
      "type": "function"
    },
    {
      "inputs": [
        {
          "internalType": "uint256",
          "name": "tokenID",
          "type": "uint256"
        }
      ],
      "name": "fetchTokenIDURI",
      "outputs": [
        {
          "internalType": "string",
          "name": "",
          "type": "string"
        }
      ],
      "stateMutability": "view",
      "type": "function"
    },
    {
      "inputs": [
        {
          "internalType": "address",
          "name": "walletAddress",
          "type": "address"
        }
      ],
      "name": "fetchWalletAddressURIs",
      "outputs": [
        {
          "internalType": "string[]",
          "name": "",
          "type": "string[]"
        }
      ],
      "stateMutability": "view",
      "type": "function"
    },
    {
      "inputs": [
        {
          "internalType": "uint256",
          "name": "tokenId",
          "type": "uint256"
        }
      ],
      "name": "getApproved",
      "outputs": [
        {
          "internalType": "address",
          "name": "",
          "type": "address"
        }
      ],
      "stateMutability": "view",
      "type": "function"
    },
    {
      "inputs": [],
      "name": "getNewCreatedTokenID",
      "outputs": [
        {
          "internalType": "uint256",
          "name": "",
          "type": "uint256"
        }
      ],
      "stateMutability": "view",
      "type": "function"
    },
    {
      "inputs": [
        {
          "internalType": "address",
          "name": "owner",
          "type": "address"
        },
        {
          "internalType": "address",
          "name": "operator",
          "type": "address"
        }
      ],
      "name": "isApprovedForAll",
      "outputs": [
        {
          "internalType": "bool",
          "name": "",
          "type": "bool"
        }
      ],
      "stateMutability": "view",
      "type": "function"
    },
    {
      "inputs": [
        {
          "internalType": "uint256",
          "name": "tokenId",
          "type": "uint256"
        },
        {
          "internalType": "uint256",
          "name": "price",
          "type": "uint256"
        }
      ],
      "name": "listNftSale",
      "outputs": [],
      "stateMutability": "nonpayable",
      "type": "function"
    },
    {
      "inputs": [
        {
          "internalType": "address",
          "name": "userWallet",
          "type": "address"
        },
        {
          "internalType": "uint256",
          "name": "withdrawAmount",
          "type": "uint256"
        }
      ],
      "name": "mpWtoUserW",
      "outputs": [],
      "stateMutability": "payable",
      "type": "function"
    },
    {
      "inputs": [],
      "name": "name",
      "outputs": [
        {
          "internalType": "string",
          "name": "",
          "type": "string"
        }
      ],
      "stateMutability": "view",
      "type": "function"
    },
    {
      "inputs": [
        {
          "internalType": "uint256",
          "name": "tokenId",
          "type": "uint256"
        }
      ],
      "name": "ownerOf",
      "outputs": [
        {
          "internalType": "address",
          "name": "",
          "type": "address"
        }
      ],
      "stateMutability": "view",
      "type": "function"
    },
    {
      "inputs": [
        {
          "internalType": "address",
          "name": "from",
          "type": "address"
        },
        {
          "internalType": "address",
          "name": "to",
          "type": "address"
        },
        {
          "internalType": "uint256",
          "name": "tokenId",
          "type": "uint256"
        }
      ],
      "name": "safeTransferFrom",
      "outputs": [],
      "stateMutability": "nonpayable",
      "type": "function"
    },
    {
      "inputs": [
        {
          "internalType": "address",
          "name": "from",
          "type": "address"
        },
        {
          "internalType": "address",
          "name": "to",
          "type": "address"
        },
        {
          "internalType": "uint256",
          "name": "tokenId",
          "type": "uint256"
        },
        {
          "internalType": "bytes",
          "name": "_data",
          "type": "bytes"
        }
      ],
      "name": "safeTransferFrom",
      "outputs": [],
      "stateMutability": "nonpayable",
      "type": "function"
    },
    {
      "inputs": [
        {
          "internalType": "address",
          "name": "operator",
          "type": "address"
        },
        {
          "internalType": "bool",
          "name": "approved",
          "type": "bool"
        }
      ],
      "name": "setApprovalForAll",
      "outputs": [],
      "stateMutability": "nonpayable",
      "type": "function"
    },
    {
      "inputs": [
        {
          "internalType": "uint256",
          "name": "gotNewMaxTokenSupply",
          "type": "uint256"
        }
      ],
      "name": "setMaxTokenSupply",
      "outputs": [],
      "stateMutability": "nonpayable",
      "type": "function"
    },
    {
      "inputs": [
        {
          "internalType": "address",
          "name": "scAddress",
          "type": "address"
        }
      ],
      "name": "setSmartContractAddress",
      "outputs": [],
      "stateMutability": "nonpayable",
      "type": "function"
    },
    {
      "inputs": [
        {
          "internalType": "bytes4",
          "name": "interfaceId",
          "type": "bytes4"
        }
      ],
      "name": "supportsInterface",
      "outputs": [
        {
          "internalType": "bool",
          "name": "",
          "type": "bool"
        }
      ],
      "stateMutability": "view",
      "type": "function"
    },
    {
      "inputs": [],
      "name": "symbol",
      "outputs": [
        {
          "internalType": "string",
          "name": "",
          "type": "string"
        }
      ],
      "stateMutability": "view",
      "type": "function"
    },
    {
      "inputs": [
        {
          "internalType": "uint256",
          "name": "tokenId",
          "type": "uint256"
        }
      ],
      "name": "tokenURI",
      "outputs": [
        {
          "internalType": "string",
          "name": "",
          "type": "string"
        }
      ],
      "stateMutability": "view",
      "type": "function"
    },
    {
      "inputs": [],
      "name": "totalSupply",
      "outputs": [
        {
          "internalType": "uint256",
          "name": "",
          "type": "uint256"
        }
      ],
      "stateMutability": "view",
      "type": "function"
    },
    {
      "inputs": [
        {
          "internalType": "address",
          "name": "from",
          "type": "address"
        },
        {
          "internalType": "address",
          "name": "to",
          "type": "address"
        },
        {
          "internalType": "uint256",
          "name": "tokenId",
          "type": "uint256"
        }
      ],
      "name": "transferFrom",
      "outputs": [],
      "stateMutability": "nonpayable",
      "type": "function"
    },
    {
      "inputs": [
        {
          "internalType": "address",
          "name": "recieverAddress",
          "type": "address"
        },
        {
          "internalType": "uint256",
          "name": "tokenId",
          "type": "uint256"
        },
        {
          "internalType": "uint256",
          "name": "gotTransferFee",
          "type": "uint256"
        }
      ],
      "name": "transferMarketItem",
      "outputs": [],
      "stateMutability": "payable",
      "type": "function"
    },
    {
      "inputs": [
        {
          "internalType": "uint256",
          "name": "tokenId",
          "type": "uint256"
        }
      ],
      "name": "unlistNftSale",
      "outputs": [],
      "stateMutability": "nonpayable",
      "type": "function"
    },
    {
      "inputs": [
        {
          "internalType": "address",
          "name": "gotAddress",
          "type": "address"
        }
      ],
      "name": "userWtoMPWallet",
      "outputs": [],
      "stateMutability": "payable",
      "type": "function"
    }
  ],
  "bytecode": "0x60806040523480156200001157600080fd5b50604051620062b9380380620062b9833981810160405281019062000037919062000277565b828260016000819055508160019080519060200190620000599291906200013e565b508060029080519060200190620000729291906200013e565b50505033600e60006101000a81548173ffffffffffffffffffffffffffffffffffffffff021916908373ffffffffffffffffffffffffffffffffffffffff16021790555060008111620000fc576040517f08c379a0000000000000000000000000000000000000000000000000000000008152600401620000f39062000326565b60405180910390fd5b80600d8190555082600b90805190602001906200011b9291906200013e565b5081600c9080519060200190620001349291906200013e565b505050506200053c565b8280546200014c90620003f8565b90600052602060002090601f016020900481019282620001705760008555620001bc565b82601f106200018b57805160ff1916838001178555620001bc565b82800160010185558215620001bc579182015b82811115620001bb5782518255916020019190600101906200019e565b5b509050620001cb9190620001cf565b5090565b5b80821115620001ea576000816000905550600101620001d0565b5090565b600062000205620001ff8462000371565b62000348565b9050828152602081018484840111156200021e57600080fd5b6200022b848285620003c2565b509392505050565b600082601f8301126200024557600080fd5b815162000257848260208601620001ee565b91505092915050565b600081519050620002718162000522565b92915050565b6000806000606084860312156200028d57600080fd5b600084015167ffffffffffffffff811115620002a857600080fd5b620002b68682870162000233565b935050602084015167ffffffffffffffff811115620002d457600080fd5b620002e28682870162000233565b9250506040620002f58682870162000260565b9150509250925092565b60006200030e602c83620003a7565b91506200031b82620004d3565b604082019050919050565b600060208201905081810360008301526200034181620002ff565b9050919050565b60006200035462000367565b90506200036282826200042e565b919050565b6000604051905090565b600067ffffffffffffffff8211156200038f576200038e62000493565b5b6200039a82620004c2565b9050602081019050919050565b600082825260208201905092915050565b6000819050919050565b60005b83811015620003e2578082015181840152602081019050620003c5565b83811115620003f2576000848401525b50505050565b600060028204905060018216806200041157607f821691505b6020821081141562000428576200042762000464565b5b50919050565b6200043982620004c2565b810181811067ffffffffffffffff821117156200045b576200045a62000493565b5b80604052505050565b7f4e487b7100000000000000000000000000000000000000000000000000000000600052602260045260246000fd5b7f4e487b7100000000000000000000000000000000000000000000000000000000600052604160045260246000fd5b6000601f19601f8301169050919050565b7f4d617820746f6b656e20737570706c79206e6565647320746f2062652067726560008201527f61746572207468616e20302e0000000000000000000000000000000000000000602082015250565b6200052d81620003b8565b81146200053957600080fd5b50565b615d6d806200054c6000396000f3fe6080604052600436106101e35760003560e01c8063874efc2411610102578063b625f46511610095578063e985e9c511610064578063e985e9c5146106f0578063ecf35cca1461072d578063f34e298c14610758578063fd9c9af414610774576101e3565b8063b625f46514610645578063b88d4fde1461066e578063c87b56dd14610697578063deba9cdb146106d4576101e3565b80639d25d9a8116100d15780639d25d9a81461058b5780639f0c8125146105c8578063a22cb465146105f3578063b07ed9821461061c576101e3565b8063874efc24146104dc5780639375a4401461050757806395d89b41146105235780639b93d6fa1461054e576101e3565b806342825fcd1161017a578063685d597a11610149578063685d597a1461041b57806370a08231146104465780637a80a86414610483578063835e43cd1461049f576101e3565b806342825fcd1461036357806342842e0e1461038c5780635013e649146103b55780636352211e146103de576101e3565b806318160ddd116101b657806318160ddd146102b657806323b872dd146102e15780632a5aab9f1461030a5780633e62319314610326576101e3565b806301ffc9a7146101e857806306fdde0314610225578063081812fc14610250578063095ea7b31461028d575b600080fd5b3480156101f457600080fd5b5061020f600480360381019061020a91906143e6565b610790565b60405161021c9190614c03565b60405180910390f35b34801561023157600080fd5b5061023a610872565b6040516102479190614c1e565b60405180910390f35b34801561025c57600080fd5b5061027760048036038101906102729190614479565b610904565b6040516102849190614b0c565b60405180910390f35b34801561029957600080fd5b506102b460048036038101906102af91906142e4565b610989565b005b3480156102c257600080fd5b506102cb610aa1565b6040516102d8919061503a565b60405180910390f35b3480156102ed57600080fd5b50610308600480360381019061030391906141de565b610aab565b005b610324600480360381019061031f919061436f565b610b0b565b005b34801561033257600080fd5b5061034d60048036038101906103489190614320565b610eea565b60405161035a9190614c03565b60405180910390f35b34801561036f57600080fd5b5061038a60048036038101906103859190614179565b6110c8565b005b34801561039857600080fd5b506103b360048036038101906103ae91906141de565b61110c565b005b3480156103c157600080fd5b506103dc60048036038101906103d79190614479565b61112c565b005b3480156103ea57600080fd5b5061040560048036038101906104009190614479565b611420565b6040516104129190614b0c565b60405180910390f35b34801561042757600080fd5b506104306114d2565b60405161043d919061503a565b60405180910390f35b34801561045257600080fd5b5061046d60048036038101906104689190614179565b6114e3565b60405161047a919061503a565b60405180910390f35b61049d60048036038101906104989190614438565b61159b565b005b3480156104ab57600080fd5b506104c660048036038101906104c19190614479565b6118ea565b6040516104d3919061503a565b60405180910390f35b3480156104e857600080fd5b506104f1611901565b6040516104fe919061503a565b60405180910390f35b610521600480360381019061051c9190614320565b61190d565b005b34801561052f57600080fd5b50610538611d0e565b6040516105459190614c1e565b60405180910390f35b34801561055a57600080fd5b5061057560048036038101906105709190614179565b611da0565b6040516105829190614be1565b60405180910390f35b34801561059757600080fd5b506105b260048036038101906105ad9190614479565b61225a565b6040516105bf9190614c1e565b60405180910390f35b3480156105d457600080fd5b506105dd6123e8565b6040516105ea9190614c1e565b60405180910390f35b3480156105ff57600080fd5b5061061a600480360381019061061591906142a8565b612476565b005b34801561062857600080fd5b50610643600480360381019061063e9190614479565b61248c565b005b34801561065157600080fd5b5061066c600480360381019061066791906144a2565b61256a565b005b34801561067a57600080fd5b506106956004803603810190610690919061422d565b6127f4565b005b3480156106a357600080fd5b506106be60048036038101906106b99190614479565b612856565b6040516106cb9190614c1e565b60405180910390f35b6106ee60048036038101906106e991906142e4565b6129a8565b005b3480156106fc57600080fd5b50610717600480360381019061071291906141a2565b612b59565b6040516107249190614c03565b60405180910390f35b34801561073957600080fd5b50610742612bed565b60405161074f9190614c1e565b60405180910390f35b610772600480360381019061076d9190614179565b612c7b565b005b61078e600480360381019061078991906144de565b612ddf565b005b60007f80ac58cd000000000000000000000000000000000000000000000000000000007bffffffffffffffffffffffffffffffffffffffffffffffffffffffff1916827bffffffffffffffffffffffffffffffffffffffffffffffffffffffff1916148061085b57507f5b5e139f000000000000000000000000000000000000000000000000000000007bffffffffffffffffffffffffffffffffffffffffffffffffffffffff1916827bffffffffffffffffffffffffffffffffffffffffffffffffffffffff1916145b8061086b575061086a82613257565b5b9050919050565b60606001805461088190615322565b80601f01602080910402602001604051908101604052809291908181526020018280546108ad90615322565b80156108fa5780601f106108cf576101008083540402835291602001916108fa565b820191906000526020600020905b8154815290600101906020018083116108dd57829003601f168201915b5050505050905090565b600061090f826132c1565b61094e576040517f08c379a000000000000000000000000000000000000000000000000000000000815260040161094590614f1a565b60405180910390fd5b6005600083815260200190815260200160002060009054906101000a900473ffffffffffffffffffffffffffffffffffffffff169050919050565b600061099482611420565b90508073ffffffffffffffffffffffffffffffffffffffff168373ffffffffffffffffffffffffffffffffffffffff161415610a05576040517f08c379a00000000000000000000000000000000000000000000000000000000081526004016109fc90614f7a565b60405180910390fd5b8073ffffffffffffffffffffffffffffffffffffffff16610a2461332d565b73ffffffffffffffffffffffffffffffffffffffff161480610a535750610a5281610a4d61332d565b612b59565b5b610a92576040517f08c379a0000000000000000000000000000000000000000000000000000000008152600401610a8990614dba565b60405180910390fd5b610a9c8383613335565b505050565b6000600d54905090565b610abc610ab661332d565b826133ee565b610afb576040517f08c379a0000000000000000000000000000000000000000000000000000000008152600401610af290614f9a565b60405180910390fd5b610b068383836134cc565b505050565b60026000541415610b51576040517f08c379a0000000000000000000000000000000000000000000000000000000008152600401610b489061501a565b60405180910390fd5b6002600081905550600115156010600083815260200190815260200160002060060160009054906101000a900460ff16151514610bc3576040517f08c379a0000000000000000000000000000000000000000000000000000000008152600401610bba90614dda565b60405180910390fd5b833414610c05576040517f08c379a0000000000000000000000000000000000000000000000000000000008152600401610bfc90614f3a565b60405180910390fd5b610c32600a60009054906101000a900473ffffffffffffffffffffffffffffffffffffffff166001612476565b6010600082815260200190815260200160002060040160009054906101000a900473ffffffffffffffffffffffffffffffffffffffff1673ffffffffffffffffffffffffffffffffffffffff166108fc849081150290604051600060405180830381858888f19350505050158015610cae573d6000803e3d6000fd5b50600e60009054906101000a900473ffffffffffffffffffffffffffffffffffffffff1673ffffffffffffffffffffffffffffffffffffffff166108fc839081150290604051600060405180830381858888f19350505050158015610d17573d6000803e3d6000fd5b50600a60009054906101000a900473ffffffffffffffffffffffffffffffffffffffff1673ffffffffffffffffffffffffffffffffffffffff166323b872dd6010600084815260200190815260200160002060040160009054906101000a900473ffffffffffffffffffffffffffffffffffffffff1687846040518463ffffffff1660e01b8152600401610dad93929190614b27565b600060405180830381600087803b158015610dc757600080fd5b505af1158015610ddb573d6000803e3d6000fd5b50505050846010600083815260200190815260200160002060040160006101000a81548173ffffffffffffffffffffffffffffffffffffffff021916908373ffffffffffffffffffffffffffffffffffffffff1602179055503460116000828254610e4691906151f0565b9250508190555034601260008773ffffffffffffffffffffffffffffffffffffffff1673ffffffffffffffffffffffffffffffffffffffff16815260200190815260200160002054610e9891906151f0565b601260008773ffffffffffffffffffffffffffffffffffffffff1673ffffffffffffffffffffffffffffffffffffffff1681526020019081526020016000208190555060016000819055505050505050565b60006010600083815260200190815260200160002060030160009054906101000a900473ffffffffffffffffffffffffffffffffffffffff1673ffffffffffffffffffffffffffffffffffffffff168473ffffffffffffffffffffffffffffffffffffffff16148015610fc05750600073ffffffffffffffffffffffffffffffffffffffff166010600084815260200190815260200160002060040160009054906101000a900473ffffffffffffffffffffffffffffffffffffffff1673ffffffffffffffffffffffffffffffffffffffff1614155b801561102e57506010600083815260200190815260200160002060040160009054906101000a900473ffffffffffffffffffffffffffffffffffffffff1673ffffffffffffffffffffffffffffffffffffffff168473ffffffffffffffffffffffffffffffffffffffff1614155b61106d576040517f08c379a000000000000000000000000000000000000000000000000000000000815260040161106490614e7a565b60405180910390fd5b82601260008673ffffffffffffffffffffffffffffffffffffffff1673ffffffffffffffffffffffffffffffffffffffff16815260200190815260200160002054106110bc57600190506110c1565b600090505b9392505050565b80600a60006101000a81548173ffffffffffffffffffffffffffffffffffffffff021916908373ffffffffffffffffffffffffffffffffffffffff16021790555050565b611127838383604051806020016040528060008152506127f4565b505050565b6010600082815260200190815260200160002060030160009054906101000a900473ffffffffffffffffffffffffffffffffffffffff1673ffffffffffffffffffffffffffffffffffffffff163373ffffffffffffffffffffffffffffffffffffffff161480156111ff5750600073ffffffffffffffffffffffffffffffffffffffff166010600083815260200190815260200160002060040160009054906101000a900473ffffffffffffffffffffffffffffffffffffffff1673ffffffffffffffffffffffffffffffffffffffff16145b8061126b57506010600082815260200190815260200160002060040160009054906101000a900473ffffffffffffffffffffffffffffffffffffffff1673ffffffffffffffffffffffffffffffffffffffff163373ffffffffffffffffffffffffffffffffffffffff16145b6112aa576040517f08c379a00000000000000000000000000000000000000000000000000000000081526004016112a190614d9a565b60405180910390fd5b600115156010600083815260200190815260200160002060060160009054906101000a900460ff16151514611314576040517f08c379a000000000000000000000000000000000000000000000000000000000815260040161130b90614eda565b60405180910390fd5b611341600a60009054906101000a900473ffffffffffffffffffffffffffffffffffffffff166001612476565b60006010600083815260200190815260200160002060060160006101000a81548160ff02191690831515021790555060006010600083815260200190815260200160002060050181905550600a60009054906101000a900473ffffffffffffffffffffffffffffffffffffffff1673ffffffffffffffffffffffffffffffffffffffff166323b872dd3033846040518463ffffffff1660e01b81526004016113eb93929190614b5e565b600060405180830381600087803b15801561140557600080fd5b505af1158015611419573d6000803e3d6000fd5b5050505050565b6000806003600084815260200190815260200160002060009054906101000a900473ffffffffffffffffffffffffffffffffffffffff169050600073ffffffffffffffffffffffffffffffffffffffff168173ffffffffffffffffffffffffffffffffffffffff1614156114c9576040517f08c379a00000000000000000000000000000000000000000000000000000000081526004016114c090614e3a565b60405180910390fd5b80915050919050565b60006114de6008613733565b905090565b60008073ffffffffffffffffffffffffffffffffffffffff168273ffffffffffffffffffffffffffffffffffffffff161415611554576040517f08c379a000000000000000000000000000000000000000000000000000000000815260040161154b90614dfa565b60405180910390fd5b600460008373ffffffffffffffffffffffffffffffffffffffff1673ffffffffffffffffffffffffffffffffffffffff168152602001908152602001600020549050919050565b600260005414156115e1576040517f08c379a00000000000000000000000000000000000000000000000000000000081526004016115d89061501a565b60405180910390fd5b6002600081905550600d546115f66008613733565b1415611637576040517f08c379a000000000000000000000000000000000000000000000000000000000815260040161162e90614c9a565b60405180910390fd5b6116416008613741565b600061164d6008613733565b90506116593382613757565b6116638183613931565b81600f6000838152602001908152602001600020908051906020019061168a929190613f9d565b506040518060e00160405280828152602001600a60009054906101000a900473ffffffffffffffffffffffffffffffffffffffff1673ffffffffffffffffffffffffffffffffffffffff1681526020018381526020013373ffffffffffffffffffffffffffffffffffffffff168152602001600073ffffffffffffffffffffffffffffffffffffffff1681526020016000815260200160001515815250601060008381526020019081526020016000206000820151816000015560208201518160010160006101000a81548173ffffffffffffffffffffffffffffffffffffffff021916908373ffffffffffffffffffffffffffffffffffffffff16021790555060408201518160020190805190602001906117a7929190613f9d565b5060608201518160030160006101000a81548173ffffffffffffffffffffffffffffffffffffffff021916908373ffffffffffffffffffffffffffffffffffffffff16021790555060808201518160040160006101000a81548173ffffffffffffffffffffffffffffffffffffffff021916908373ffffffffffffffffffffffffffffffffffffffff16021790555060a0820151816005015560c08201518160060160006101000a81548160ff021916908315150217905550905050600a60009054906101000a900473ffffffffffffffffffffffffffffffffffffffff1673ffffffffffffffffffffffffffffffffffffffff16817f075fb7fd1ecd2e51f3b8d1dc8bfbd3c77c6547ddbd967e194636fcd46d91f925843360008060006040516118d6959493929190614c40565b60405180910390a350600160008190555050565b6000601154826118fa91906151f0565b9050919050565b60098060000154905081565b60026000541415611953576040517f08c379a000000000000000000000000000000000000000000000000000000000815260040161194a9061501a565b60405180910390fd5b60026000819055506010600083815260200190815260200160002060030160009054906101000a900473ffffffffffffffffffffffffffffffffffffffff1673ffffffffffffffffffffffffffffffffffffffff163373ffffffffffffffffffffffffffffffffffffffff16148015611a2e5750600073ffffffffffffffffffffffffffffffffffffffff166010600084815260200190815260200160002060040160009054906101000a900473ffffffffffffffffffffffffffffffffffffffff1673ffffffffffffffffffffffffffffffffffffffff16145b80611a9a57506010600083815260200190815260200160002060040160009054906101000a900473ffffffffffffffffffffffffffffffffffffffff1673ffffffffffffffffffffffffffffffffffffffff163373ffffffffffffffffffffffffffffffffffffffff16145b611ad9576040517f08c379a0000000000000000000000000000000000000000000000000000000008152600401611ad090614d9a565b60405180910390fd5b600015156010600084815260200190815260200160002060060160009054906101000a900460ff16151514611b43576040517f08c379a0000000000000000000000000000000000000000000000000000000008152600401611b3a90614ffa565b60405180910390fd5b803414611b85576040517f08c379a0000000000000000000000000000000000000000000000000000000008152600401611b7c90614e1a565b60405180910390fd5b611bb2600a60009054906101000a900473ffffffffffffffffffffffffffffffffffffffff166001612476565b826010600084815260200190815260200160002060040160006101000a81548173ffffffffffffffffffffffffffffffffffffffff021916908373ffffffffffffffffffffffffffffffffffffffff160217905550600e60009054906101000a900473ffffffffffffffffffffffffffffffffffffffff1673ffffffffffffffffffffffffffffffffffffffff166108fc829081150290604051600060405180830381858888f19350505050158015611c6f573d6000803e3d6000fd5b50600a60009054906101000a900473ffffffffffffffffffffffffffffffffffffffff1673ffffffffffffffffffffffffffffffffffffffff166323b872dd3385856040518463ffffffff1660e01b8152600401611ccf93929190614b5e565b600060405180830381600087803b158015611ce957600080fd5b505af1158015611cfd573d6000803e3d6000fd5b505050506001600081905550505050565b606060028054611d1d90615322565b80601f0160208091040260200160405190810160405280929190818152602001828054611d4990615322565b8015611d965780601f10611d6b57610100808354040283529160200191611d96565b820191906000526020600020905b815481529060010190602001808311611d7957829003601f168201915b5050505050905090565b60606000611dae6008613733565b905060008060005b83811015611f49578573ffffffffffffffffffffffffffffffffffffffff1660106000600184611de69190615169565b815260200190815260200160002060030160009054906101000a900473ffffffffffffffffffffffffffffffffffffffff1673ffffffffffffffffffffffffffffffffffffffff16148015611ea95750600073ffffffffffffffffffffffffffffffffffffffff1660106000600184611e5f9190615169565b815260200190815260200160002060040160009054906101000a900473ffffffffffffffffffffffffffffffffffffffff1673ffffffffffffffffffffffffffffffffffffffff16145b80611f2157508573ffffffffffffffffffffffffffffffffffffffff1660106000600184611ed79190615169565b815260200190815260200160002060040160009054906101000a900473ffffffffffffffffffffffffffffffffffffffff1673ffffffffffffffffffffffffffffffffffffffff16145b15611f3657600183611f339190615169565b92505b8080611f4190615385565b915050611db6565b5060008267ffffffffffffffff811115611f8c577f4e487b7100000000000000000000000000000000000000000000000000000000600052604160045260246000fd5b604051908082528060200260200182016040528015611fbf57816020015b6060815260200190600190039081611faa5790505b50905060005b8481101561224d578673ffffffffffffffffffffffffffffffffffffffff1660106000600184611ff59190615169565b815260200190815260200160002060030160009054906101000a900473ffffffffffffffffffffffffffffffffffffffff1673ffffffffffffffffffffffffffffffffffffffff161480156120b85750600073ffffffffffffffffffffffffffffffffffffffff166010600060018461206e9190615169565b815260200190815260200160002060040160009054906101000a900473ffffffffffffffffffffffffffffffffffffffff1673ffffffffffffffffffffffffffffffffffffffff16145b8061213057508673ffffffffffffffffffffffffffffffffffffffff16601060006001846120e69190615169565b815260200190815260200160002060040160009054906101000a900473ffffffffffffffffffffffffffffffffffffffff1673ffffffffffffffffffffffffffffffffffffffff16145b1561223a576000601060006001846121489190615169565b8152602001908152602001600020600201805461216490615322565b80601f016020809104026020016040519081016040528092919081815260200182805461219090615322565b80156121dd5780601f106121b2576101008083540402835291602001916121dd565b820191906000526020600020905b8154815290600101906020018083116121c057829003601f168201915b505050505090508083858151811061221e577f4e487b7100000000000000000000000000000000000000000000000000000000600052603260045260246000fd5b60200260200101819052506001846122369190615169565b9350505b808061224590615385565b915050611fc5565b5080945050505050919050565b60606000600f6000848152602001908152602001600020805461227c90615322565b80601f01602080910402602001604051908101604052809291908181526020018280546122a890615322565b80156122f55780601f106122ca576101008083540402835291602001916122f5565b820191906000526020600020905b8154815290600101906020018083116122d857829003601f168201915b5050505050905060008151146123a957600f6000848152602001908152602001600020805461232390615322565b80601f016020809104026020016040519081016040528092919081815260200182805461234f90615322565b801561239c5780601f106123715761010080835404028352916020019161239c565b820191906000526020600020905b81548152906001019060200180831161237f57829003601f168201915b50505050509150506123e3565b6040518060400160405280601781526020017f546f6b656e20494420646f6573206e6f742065786973740000000000000000008152509150505b919050565b600b80546123f590615322565b80601f016020809104026020016040519081016040528092919081815260200182805461242190615322565b801561246e5780601f106124435761010080835404028352916020019161246e565b820191906000526020600020905b81548152906001019060200180831161245157829003601f168201915b505050505081565b61248861248161332d565b83836139a5565b5050565b600e60009054906101000a900473ffffffffffffffffffffffffffffffffffffffff1673ffffffffffffffffffffffffffffffffffffffff163373ffffffffffffffffffffffffffffffffffffffff161461251c576040517f08c379a000000000000000000000000000000000000000000000000000000000815260040161251390614eba565b60405180910390fd5b600d548111612560576040517f08c379a000000000000000000000000000000000000000000000000000000000815260040161255790614d1a565b60405180910390fd5b80600d8190555050565b6010600083815260200190815260200160002060030160009054906101000a900473ffffffffffffffffffffffffffffffffffffffff1673ffffffffffffffffffffffffffffffffffffffff163373ffffffffffffffffffffffffffffffffffffffff1614801561263d5750600073ffffffffffffffffffffffffffffffffffffffff166010600084815260200190815260200160002060040160009054906101000a900473ffffffffffffffffffffffffffffffffffffffff1673ffffffffffffffffffffffffffffffffffffffff16145b806126a957506010600083815260200190815260200160002060040160009054906101000a900473ffffffffffffffffffffffffffffffffffffffff1673ffffffffffffffffffffffffffffffffffffffff163373ffffffffffffffffffffffffffffffffffffffff16145b6126e8576040517f08c379a00000000000000000000000000000000000000000000000000000000081526004016126df90614d9a565b60405180910390fd5b612715600a60009054906101000a900473ffffffffffffffffffffffffffffffffffffffff166001612476565b60016010600084815260200190815260200160002060060160006101000a81548160ff021916908315150217905550806010600084815260200190815260200160002060050181905550600a60009054906101000a900473ffffffffffffffffffffffffffffffffffffffff1673ffffffffffffffffffffffffffffffffffffffff166323b872dd3330856040518463ffffffff1660e01b81526004016127be93929190614b5e565b600060405180830381600087803b1580156127d857600080fd5b505af11580156127ec573d6000803e3d6000fd5b505050505050565b6128056127ff61332d565b836133ee565b612844576040517f08c379a000000000000000000000000000000000000000000000000000000000815260040161283b90614f9a565b60405180910390fd5b61285084848484613b12565b50505050565b6060612861826132c1565b6128a0576040517f08c379a000000000000000000000000000000000000000000000000000000000815260040161289790614efa565b60405180910390fd5b60006007600084815260200190815260200160002080546128c090615322565b80601f01602080910402602001604051908101604052809291908181526020018280546128ec90615322565b80156129395780601f1061290e57610100808354040283529160200191612939565b820191906000526020600020905b81548152906001019060200180831161291c57829003601f168201915b50505050509050600061294a613b6e565b90506000815114156129605781925050506129a3565b60008251111561299557808260405160200161297d929190614ae8565b604051602081830303815290604052925050506129a3565b61299e84613b85565b925050505b919050565b600260005414156129ee576040517f08c379a00000000000000000000000000000000000000000000000000000000081526004016129e59061501a565b60405180910390fd5b600260008190555080601260008473ffffffffffffffffffffffffffffffffffffffff1673ffffffffffffffffffffffffffffffffffffffff168152602001908152602001600020541115612a78576040517f08c379a0000000000000000000000000000000000000000000000000000000008152600401612a6f90614fda565b60405180910390fd5b34601260008473ffffffffffffffffffffffffffffffffffffffff1673ffffffffffffffffffffffffffffffffffffffff16815260200190815260200160002054612ac391906151f0565b601260008473ffffffffffffffffffffffffffffffffffffffff1673ffffffffffffffffffffffffffffffffffffffff168152602001908152602001600020819055508173ffffffffffffffffffffffffffffffffffffffff166108fc829081150290604051600060405180830381858888f19350505050158015612b4c573d6000803e3d6000fd5b5060016000819055505050565b6000600660008473ffffffffffffffffffffffffffffffffffffffff1673ffffffffffffffffffffffffffffffffffffffff16815260200190815260200160002060008373ffffffffffffffffffffffffffffffffffffffff1673ffffffffffffffffffffffffffffffffffffffff16815260200190815260200160002060009054906101000a900460ff16905092915050565b600c8054612bfa90615322565b80601f0160208091040260200160405190810160405280929190818152602001828054612c2690615322565b8015612c735780601f10612c4857610100808354040283529160200191612c73565b820191906000526020600020905b815481529060010190602001808311612c5657829003601f168201915b505050505081565b60026000541415612cc1576040517f08c379a0000000000000000000000000000000000000000000000000000000008152600401612cb89061501a565b60405180910390fd5b600260008190555034601260008373ffffffffffffffffffffffffffffffffffffffff1673ffffffffffffffffffffffffffffffffffffffff16815260200190815260200160002054612d149190615169565b601260008373ffffffffffffffffffffffffffffffffffffffff1673ffffffffffffffffffffffffffffffffffffffff16815260200190815260200160002081905550600e60009054906101000a900473ffffffffffffffffffffffffffffffffffffffff1673ffffffffffffffffffffffffffffffffffffffff166108fc349081150290604051600060405180830381858888f19350505050158015612dbf573d6000803e3d6000fd5b5034601154612dce9190615169565b601181905550600160008190555050565b60026000541415612e25576040517f08c379a0000000000000000000000000000000000000000000000000000000008152600401612e1c9061501a565b60405180910390fd5b6002600081905550600115156010600086815260200190815260200160002060060160009054906101000a900460ff16151514612e97576040517f08c379a0000000000000000000000000000000000000000000000000000000008152600401612e8e90614dda565b60405180910390fd5b823414612ed9576040517f08c379a0000000000000000000000000000000000000000000000000000000008152600401612ed090614fba565b60405180910390fd5b600073ffffffffffffffffffffffffffffffffffffffff166010600086815260200190815260200160002060040160009054906101000a900473ffffffffffffffffffffffffffffffffffffffff1673ffffffffffffffffffffffffffffffffffffffff161415612fc6576010600085815260200190815260200160002060030160009054906101000a900473ffffffffffffffffffffffffffffffffffffffff1673ffffffffffffffffffffffffffffffffffffffff166108fc839081150290604051600060405180830381858888f19350505050158015612fc0573d6000803e3d6000fd5b506130af565b600073ffffffffffffffffffffffffffffffffffffffff166010600086815260200190815260200160002060040160009054906101000a900473ffffffffffffffffffffffffffffffffffffffff1673ffffffffffffffffffffffffffffffffffffffff16146130ae576010600085815260200190815260200160002060040160009054906101000a900473ffffffffffffffffffffffffffffffffffffffff1673ffffffffffffffffffffffffffffffffffffffff166108fc839081150290604051600060405180830381858888f193505050501580156130ac573d6000803e3d6000fd5b505b5b600a60009054906101000a900473ffffffffffffffffffffffffffffffffffffffff1673ffffffffffffffffffffffffffffffffffffffff166323b872dd3033876040518463ffffffff1660e01b815260040161310e93929190614b5e565b600060405180830381600087803b15801561312857600080fd5b505af115801561313c573d6000803e3d6000fd5b50505050336010600086815260200190815260200160002060040160006101000a81548173ffffffffffffffffffffffffffffffffffffffff021916908373ffffffffffffffffffffffffffffffffffffffff16021790555060006010600086815260200190815260200160002060060160006101000a81548160ff02191690831515021790555060006010600086815260200190815260200160002060050181905550600e60009054906101000a900473ffffffffffffffffffffffffffffffffffffffff1673ffffffffffffffffffffffffffffffffffffffff166108fc829081150290604051600060405180830381858888f19350505050158015613248573d6000803e3d6000fd5b50600160008190555050505050565b60007f01ffc9a7000000000000000000000000000000000000000000000000000000007bffffffffffffffffffffffffffffffffffffffffffffffffffffffff1916827bffffffffffffffffffffffffffffffffffffffffffffffffffffffff1916149050919050565b60008073ffffffffffffffffffffffffffffffffffffffff166003600084815260200190815260200160002060009054906101000a900473ffffffffffffffffffffffffffffffffffffffff1673ffffffffffffffffffffffffffffffffffffffff1614159050919050565b600033905090565b816005600083815260200190815260200160002060006101000a81548173ffffffffffffffffffffffffffffffffffffffff021916908373ffffffffffffffffffffffffffffffffffffffff160217905550808273ffffffffffffffffffffffffffffffffffffffff166133a883611420565b73ffffffffffffffffffffffffffffffffffffffff167f8c5be1e5ebec7d5bd14f71427d1e84f3dd0314c0f7b2291e5b200ac8c7c3b92560405160405180910390a45050565b60006133f9826132c1565b613438576040517f08c379a000000000000000000000000000000000000000000000000000000000815260040161342f90614d7a565b60405180910390fd5b600061344383611420565b90508073ffffffffffffffffffffffffffffffffffffffff168473ffffffffffffffffffffffffffffffffffffffff1614806134b257508373ffffffffffffffffffffffffffffffffffffffff1661349a84610904565b73ffffffffffffffffffffffffffffffffffffffff16145b806134c357506134c28185612b59565b5b91505092915050565b8273ffffffffffffffffffffffffffffffffffffffff166134ec82611420565b73ffffffffffffffffffffffffffffffffffffffff1614613542576040517f08c379a000000000000000000000000000000000000000000000000000000000815260040161353990614cda565b60405180910390fd5b600073ffffffffffffffffffffffffffffffffffffffff168273ffffffffffffffffffffffffffffffffffffffff1614156135b2576040517f08c379a00000000000000000000000000000000000000000000000000000000081526004016135a990614d3a565b60405180910390fd5b6135bd838383613c2c565b6135c8600082613335565b6001600460008573ffffffffffffffffffffffffffffffffffffffff1673ffffffffffffffffffffffffffffffffffffffff168152602001908152602001600020600082825461361891906151f0565b925050819055506001600460008473ffffffffffffffffffffffffffffffffffffffff1673ffffffffffffffffffffffffffffffffffffffff168152602001908152602001600020600082825461366f9190615169565b92505081905550816003600083815260200190815260200160002060006101000a81548173ffffffffffffffffffffffffffffffffffffffff021916908373ffffffffffffffffffffffffffffffffffffffff160217905550808273ffffffffffffffffffffffffffffffffffffffff168473ffffffffffffffffffffffffffffffffffffffff167fddf252ad1be2c89b69c2b068fc378daa952ba7f163c4a11628f55a4df523b3ef60405160405180910390a461372e838383613c31565b505050565b600081600001549050919050565b6001816000016000828254019250508190555050565b600073ffffffffffffffffffffffffffffffffffffffff168273ffffffffffffffffffffffffffffffffffffffff1614156137c7576040517f08c379a00000000000000000000000000000000000000000000000000000000081526004016137be90614e9a565b60405180910390fd5b6137d0816132c1565b15613810576040517f08c379a000000000000000000000000000000000000000000000000000000000815260040161380790614cfa565b60405180910390fd5b61381c60008383613c2c565b6001600460008473ffffffffffffffffffffffffffffffffffffffff1673ffffffffffffffffffffffffffffffffffffffff168152602001908152602001600020600082825461386c9190615169565b92505081905550816003600083815260200190815260200160002060006101000a81548173ffffffffffffffffffffffffffffffffffffffff021916908373ffffffffffffffffffffffffffffffffffffffff160217905550808273ffffffffffffffffffffffffffffffffffffffff16600073ffffffffffffffffffffffffffffffffffffffff167fddf252ad1be2c89b69c2b068fc378daa952ba7f163c4a11628f55a4df523b3ef60405160405180910390a461392d60008383613c31565b5050565b61393a826132c1565b613979576040517f08c379a000000000000000000000000000000000000000000000000000000000815260040161397090614e5a565b60405180910390fd5b806007600084815260200190815260200160002090805190602001906139a0929190613f9d565b505050565b8173ffffffffffffffffffffffffffffffffffffffff168373ffffffffffffffffffffffffffffffffffffffff161415613a14576040517f08c379a0000000000000000000000000000000000000000000000000000000008152600401613a0b90614d5a565b60405180910390fd5b80600660008573ffffffffffffffffffffffffffffffffffffffff1673ffffffffffffffffffffffffffffffffffffffff16815260200190815260200160002060008473ffffffffffffffffffffffffffffffffffffffff1673ffffffffffffffffffffffffffffffffffffffff16815260200190815260200160002060006101000a81548160ff0219169083151502179055508173ffffffffffffffffffffffffffffffffffffffff168373ffffffffffffffffffffffffffffffffffffffff167f17307eab39ab6107e8899845ad3d59bd9653f200f220920489ca2b5937696c3183604051613b059190614c03565b60405180910390a3505050565b613b1d8484846134cc565b613b2984848484613c36565b613b68576040517f08c379a0000000000000000000000000000000000000000000000000000000008152600401613b5f90614cba565b60405180910390fd5b50505050565b606060405180602001604052806000815250905090565b6060613b90826132c1565b613bcf576040517f08c379a0000000000000000000000000000000000000000000000000000000008152600401613bc690614f5a565b60405180910390fd5b6000613bd9613b6e565b90506000815111613bf95760405180602001604052806000815250613c24565b80613c0384613dcd565b604051602001613c14929190614ae8565b6040516020818303038152906040525b915050919050565b505050565b505050565b6000613c578473ffffffffffffffffffffffffffffffffffffffff16613f7a565b15613dc0578373ffffffffffffffffffffffffffffffffffffffff1663150b7a02613c8061332d565b8786866040518563ffffffff1660e01b8152600401613ca29493929190614b95565b602060405180830381600087803b158015613cbc57600080fd5b505af1925050508015613ced57506040513d601f19601f82011682018060405250810190613cea919061440f565b60015b613d70573d8060008114613d1d576040519150601f19603f3d011682016040523d82523d6000602084013e613d22565b606091505b50600081511415613d68576040517f08c379a0000000000000000000000000000000000000000000000000000000008152600401613d5f90614cba565b60405180910390fd5b805181602001fd5b63150b7a0260e01b7bffffffffffffffffffffffffffffffffffffffffffffffffffffffff1916817bffffffffffffffffffffffffffffffffffffffffffffffffffffffff191614915050613dc5565b600190505b949350505050565b60606000821415613e15576040518060400160405280600181526020017f30000000000000000000000000000000000000000000000000000000000000008152509050613f75565b600082905060005b60008214613e47578080613e3090615385565b915050600a82613e4091906151bf565b9150613e1d565b60008167ffffffffffffffff811115613e89577f4e487b7100000000000000000000000000000000000000000000000000000000600052604160045260246000fd5b6040519080825280601f01601f191660200182016040528015613ebb5781602001600182028036833780820191505090505b5090505b60008514613f6e57600182613ed491906151f0565b9150600a85613ee391906153ce565b6030613eef9190615169565b60f81b818381518110613f2b577f4e487b7100000000000000000000000000000000000000000000000000000000600052603260045260246000fd5b60200101907effffffffffffffffffffffffffffffffffffffffffffffffffffffffffffff1916908160001a905350600a85613f6791906151bf565b9450613ebf565b8093505050505b919050565b6000808273ffffffffffffffffffffffffffffffffffffffff163b119050919050565b828054613fa990615322565b90600052602060002090601f016020900481019282613fcb5760008555614012565b82601f10613fe457805160ff1916838001178555614012565b82800160010185558215614012579182015b82811115614011578251825591602001919060010190613ff6565b5b50905061401f9190614023565b5090565b5b8082111561403c576000816000905550600101614024565b5090565b600061405361404e8461507a565b615055565b90508281526020810184848401111561406b57600080fd5b6140768482856152e0565b509392505050565b600061409161408c846150ab565b615055565b9050828152602081018484840111156140a957600080fd5b6140b48482856152e0565b509392505050565b6000813590506140cb81615cdb565b92915050565b6000813590506140e081615cf2565b92915050565b6000813590506140f581615d09565b92915050565b60008151905061410a81615d09565b92915050565b600082601f83011261412157600080fd5b8135614131848260208601614040565b91505092915050565b600082601f83011261414b57600080fd5b813561415b84826020860161407e565b91505092915050565b60008135905061417381615d20565b92915050565b60006020828403121561418b57600080fd5b6000614199848285016140bc565b91505092915050565b600080604083850312156141b557600080fd5b60006141c3858286016140bc565b92505060206141d4858286016140bc565b9150509250929050565b6000806000606084860312156141f357600080fd5b6000614201868287016140bc565b9350506020614212868287016140bc565b925050604061422386828701614164565b9150509250925092565b6000806000806080858703121561424357600080fd5b6000614251878288016140bc565b9450506020614262878288016140bc565b935050604061427387828801614164565b925050606085013567ffffffffffffffff81111561429057600080fd5b61429c87828801614110565b91505092959194509250565b600080604083850312156142bb57600080fd5b60006142c9858286016140bc565b92505060206142da858286016140d1565b9150509250929050565b600080604083850312156142f757600080fd5b6000614305858286016140bc565b925050602061431685828601614164565b9150509250929050565b60008060006060848603121561433557600080fd5b6000614343868287016140bc565b935050602061435486828701614164565b925050604061436586828701614164565b9150509250925092565b600080600080600060a0868803121561438757600080fd5b6000614395888289016140bc565b95505060206143a688828901614164565b94505060406143b788828901614164565b93505060606143c888828901614164565b92505060806143d988828901614164565b9150509295509295909350565b6000602082840312156143f857600080fd5b6000614406848285016140e6565b91505092915050565b60006020828403121561442157600080fd5b600061442f848285016140fb565b91505092915050565b60006020828403121561444a57600080fd5b600082013567ffffffffffffffff81111561446457600080fd5b6144708482850161413a565b91505092915050565b60006020828403121561448b57600080fd5b600061449984828501614164565b91505092915050565b600080604083850312156144b557600080fd5b60006144c385828601614164565b92505060206144d485828601614164565b9150509250929050565b600080600080608085870312156144f457600080fd5b600061450287828801614164565b945050602061451387828801614164565b935050604061452487828801614164565b925050606061453587828801614164565b91505092959194509250565b600061454d838361463f565b905092915050565b61455e81615298565b82525050565b61456d81615224565b82525050565b600061457e826150ec565b614588818561511a565b93508360208202850161459a856150dc565b8060005b858110156145d657848403895281516145b78582614541565b94506145c28361510d565b925060208a0199505060018101905061459e565b50829750879550505050505092915050565b6145f181615236565b82525050565b6000614602826150f7565b61460c818561512b565b935061461c8185602086016152ef565b614625816154bb565b840191505092915050565b614639816152aa565b82525050565b600061464a82615102565b614654818561513c565b93506146648185602086016152ef565b61466d816154bb565b840191505092915050565b600061468382615102565b61468d818561514d565b935061469d8185602086016152ef565b6146a6816154bb565b840191505092915050565b60006146bc82615102565b6146c6818561515e565b93506146d68185602086016152ef565b80840191505092915050565b60006146ef602e8361514d565b91506146fa826154cc565b604082019050919050565b600061471260328361514d565b915061471d8261551b565b604082019050919050565b600061473560258361514d565b91506147408261556a565b604082019050919050565b6000614758601c8361514d565b9150614763826155b9565b602082019050919050565b600061477b60488361514d565b9150614786826155e2565b606082019050919050565b600061479e60248361514d565b91506147a982615657565b604082019050919050565b60006147c160198361514d565b91506147cc826156a6565b602082019050919050565b60006147e4602c8361514d565b91506147ef826156cf565b604082019050919050565b600061480760228361514d565b91506148128261571e565b604082019050919050565b600061482a60388361514d565b91506148358261576d565b604082019050919050565b600061484d60188361514d565b9150614858826157bc565b602082019050919050565b6000614870602a8361514d565b915061487b826157e5565b604082019050919050565b6000614893601c8361514d565b915061489e82615834565b602082019050919050565b60006148b660298361514d565b91506148c18261585d565b604082019050919050565b60006148d9602e8361514d565b91506148e4826158ac565b604082019050919050565b60006148fc60208361514d565b9150614907826158fb565b602082019050919050565b600061491f60208361514d565b915061492a82615924565b602082019050919050565b600061494260278361514d565b915061494d8261594d565b604082019050919050565b600061496560228361514d565b91506149708261599c565b604082019050919050565b600061498860318361514d565b9150614993826159eb565b604082019050919050565b60006149ab602c8361514d565b91506149b682615a3a565b604082019050919050565b60006149ce60218361514d565b91506149d982615a89565b604082019050919050565b60006149f1602f8361514d565b91506149fc82615ad8565b604082019050919050565b6000614a1460218361514d565b9150614a1f82615b27565b604082019050919050565b6000614a3760318361514d565b9150614a4282615b76565b604082019050919050565b6000614a5a60188361514d565b9150614a6582615bc5565b602082019050919050565b6000614a7d60348361514d565b9150614a8882615bee565b604082019050919050565b6000614aa060458361514d565b9150614aab82615c3d565b606082019050919050565b6000614ac3601f8361514d565b9150614ace82615cb2565b602082019050919050565b614ae28161528e565b82525050565b6000614af482856146b1565b9150614b0082846146b1565b91508190509392505050565b6000602082019050614b216000830184614564565b92915050565b6000606082019050614b3c6000830186614555565b614b496020830185614564565b614b566040830184614ad9565b949350505050565b6000606082019050614b736000830186614564565b614b806020830185614564565b614b8d6040830184614ad9565b949350505050565b6000608082019050614baa6000830187614564565b614bb76020830186614564565b614bc46040830185614ad9565b8181036060830152614bd681846145f7565b905095945050505050565b60006020820190508181036000830152614bfb8184614573565b905092915050565b6000602082019050614c1860008301846145e8565b92915050565b60006020820190508181036000830152614c388184614678565b905092915050565b600060a0820190508181036000830152614c5a8188614678565b9050614c696020830187614564565b614c766040830186614564565b614c836060830185614630565b614c9060808301846145e8565b9695505050505050565b60006020820190508181036000830152614cb3816146e2565b9050919050565b60006020820190508181036000830152614cd381614705565b9050919050565b60006020820190508181036000830152614cf381614728565b9050919050565b60006020820190508181036000830152614d138161474b565b9050919050565b60006020820190508181036000830152614d338161476e565b9050919050565b60006020820190508181036000830152614d5381614791565b9050919050565b60006020820190508181036000830152614d73816147b4565b9050919050565b60006020820190508181036000830152614d93816147d7565b9050919050565b60006020820190508181036000830152614db3816147fa565b9050919050565b60006020820190508181036000830152614dd38161481d565b9050919050565b60006020820190508181036000830152614df381614840565b9050919050565b60006020820190508181036000830152614e1381614863565b9050919050565b60006020820190508181036000830152614e3381614886565b9050919050565b60006020820190508181036000830152614e53816148a9565b9050919050565b60006020820190508181036000830152614e73816148cc565b9050919050565b60006020820190508181036000830152614e93816148ef565b9050919050565b60006020820190508181036000830152614eb381614912565b9050919050565b60006020820190508181036000830152614ed381614935565b9050919050565b60006020820190508181036000830152614ef381614958565b9050919050565b60006020820190508181036000830152614f138161497b565b9050919050565b60006020820190508181036000830152614f338161499e565b9050919050565b60006020820190508181036000830152614f53816149c1565b9050919050565b60006020820190508181036000830152614f73816149e4565b9050919050565b60006020820190508181036000830152614f9381614a07565b9050919050565b60006020820190508181036000830152614fb381614a2a565b9050919050565b60006020820190508181036000830152614fd381614a4d565b9050919050565b60006020820190508181036000830152614ff381614a70565b9050919050565b6000602082019050818103600083015261501381614a93565b9050919050565b6000602082019050818103600083015261503381614ab6565b9050919050565b600060208201905061504f6000830184614ad9565b92915050565b600061505f615070565b905061506b8282615354565b919050565b6000604051905090565b600067ffffffffffffffff8211156150955761509461548c565b5b61509e826154bb565b9050602081019050919050565b600067ffffffffffffffff8211156150c6576150c561548c565b5b6150cf826154bb565b9050602081019050919050565b6000819050602082019050919050565b600081519050919050565b600081519050919050565b600081519050919050565b6000602082019050919050565b600082825260208201905092915050565b600082825260208201905092915050565b600082825260208201905092915050565b600082825260208201905092915050565b600081905092915050565b60006151748261528e565b915061517f8361528e565b9250827fffffffffffffffffffffffffffffffffffffffffffffffffffffffffffffffff038211156151b4576151b36153ff565b5b828201905092915050565b60006151ca8261528e565b91506151d58361528e565b9250826151e5576151e461542e565b5b828204905092915050565b60006151fb8261528e565b91506152068361528e565b925082821015615219576152186153ff565b5b828203905092915050565b600061522f8261526e565b9050919050565b60008115159050919050565b60007fffffffff0000000000000000000000000000000000000000000000000000000082169050919050565b600073ffffffffffffffffffffffffffffffffffffffff82169050919050565b6000819050919050565b60006152a3826152bc565b9050919050565b60006152b58261528e565b9050919050565b60006152c7826152ce565b9050919050565b60006152d98261526e565b9050919050565b82818337600083830152505050565b60005b8381101561530d5780820151818401526020810190506152f2565b8381111561531c576000848401525b50505050565b6000600282049050600182168061533a57607f821691505b6020821081141561534e5761534d61545d565b5b50919050565b61535d826154bb565b810181811067ffffffffffffffff8211171561537c5761537b61548c565b5b80604052505050565b60006153908261528e565b91507fffffffffffffffffffffffffffffffffffffffffffffffffffffffffffffffff8214156153c3576153c26153ff565b5b600182019050919050565b60006153d98261528e565b91506153e48361528e565b9250826153f4576153f361542e565b5b828206905092915050565b7f4e487b7100000000000000000000000000000000000000000000000000000000600052601160045260246000fd5b7f4e487b7100000000000000000000000000000000000000000000000000000000600052601260045260246000fd5b7f4e487b7100000000000000000000000000000000000000000000000000000000600052602260045260246000fd5b7f4e487b7100000000000000000000000000000000000000000000000000000000600052604160045260246000fd5b6000601f19601f8301169050919050565b7f4d4148544b4e20546f6b656e2068617320726561636865642069742773206d6160008201527f7820737570706c79206c696d6974000000000000000000000000000000000000602082015250565b7f4552433732313a207472616e7366657220746f206e6f6e20455243373231526560008201527f63656976657220696d706c656d656e7465720000000000000000000000000000602082015250565b7f4552433732313a207472616e736665722066726f6d20696e636f72726563742060008201527f6f776e6572000000000000000000000000000000000000000000000000000000602082015250565b7f4552433732313a20746f6b656e20616c7265616479206d696e74656400000000600082015250565b7f4e6577206d617820746f6b656e20737570706c79206e6565647320746f20626560008201527f2067726561746572207468616e2070726576696f7573204d617820546f6b656e60208201527f20537570706c792e000000000000000000000000000000000000000000000000604082015250565b7f4552433732313a207472616e7366657220746f20746865207a65726f2061646460008201527f7265737300000000000000000000000000000000000000000000000000000000602082015250565b7f4552433732313a20617070726f766520746f2063616c6c657200000000000000600082015250565b7f4552433732313a206f70657261746f7220717565727920666f72206e6f6e657860008201527f697374656e7420746f6b656e0000000000000000000000000000000000000000602082015250565b7f596f7520617265206e6f7420746865206f776e6572206f66207468697320497460008201527f656d000000000000000000000000000000000000000000000000000000000000602082015250565b7f4552433732313a20617070726f76652063616c6c6572206973206e6f74206f7760008201527f6e6572206e6f7220617070726f76656420666f7220616c6c0000000000000000602082015250565b7f4e4654206e6f74206c697374656420666f722073616c652e0000000000000000600082015250565b7f4552433732313a2062616c616e636520717565727920666f7220746865207a6560008201527f726f206164647265737300000000000000000000000000000000000000000000602082015250565b7f506c656173652070617920746865207472616e73666572206665652e00000000600082015250565b7f4552433732313a206f776e657220717565727920666f72206e6f6e657869737460008201527f656e7420746f6b656e0000000000000000000000000000000000000000000000602082015250565b7f45524337323155524953746f726167653a2055524920736574206f66206e6f6e60008201527f6578697374656e7420746f6b656e000000000000000000000000000000000000602082015250565b7f4e4654206f776e6572206973206e6f7420616c6c6f77656420746f2062696421600082015250565b7f4552433732313a206d696e7420746f20746865207a65726f2061646472657373600082015250565b7f4f6e6c79206f776e65722063616e2073657420746865206d617820746f6b656e60008201527f20737570706c7900000000000000000000000000000000000000000000000000602082015250565b7f4e465420697320616c7265616479206e6f74206c697374656420666f7220736160008201527f6c65000000000000000000000000000000000000000000000000000000000000602082015250565b7f45524337323155524953746f726167653a2055524920717565727920666f722060008201527f6e6f6e6578697374656e7420746f6b656e000000000000000000000000000000602082015250565b7f4552433732313a20617070726f76656420717565727920666f72206e6f6e657860008201527f697374656e7420746f6b656e0000000000000000000000000000000000000000602082015250565b7f506c656173652073656e64206578616374204e46542062696420616d6f756e7460008201527f2e00000000000000000000000000000000000000000000000000000000000000602082015250565b7f4552433732314d657461646174613a2055524920717565727920666f72206e6f60008201527f6e6578697374656e7420746f6b656e0000000000000000000000000000000000602082015250565b7f4552433732313a20617070726f76616c20746f2063757272656e74206f776e6560008201527f7200000000000000000000000000000000000000000000000000000000000000602082015250565b7f4552433732313a207472616e736665722063616c6c6572206973206e6f74206f60008201527f776e6572206e6f7220617070726f766564000000000000000000000000000000602082015250565b7f506c65617365207061792061736b696e67207072696365210000000000000000600082015250565b7f57616c6c657420686173206c65737365722066756e6473207468616e2061736b60008201527f696e6720776974686472617720616d6f756e742e000000000000000000000000602082015250565b7f596f75206d7573742074616b6520646f776e206d61726b6574706c616365206c60008201527f697374696e67206265666f726520617474656d7074696e6720746f207472616e60208201527f736665722e000000000000000000000000000000000000000000000000000000604082015250565b7f5265656e7472616e637947756172643a207265656e7472616e742063616c6c00600082015250565b615ce481615224565b8114615cef57600080fd5b50565b615cfb81615236565b8114615d0657600080fd5b50565b615d1281615242565b8114615d1d57600080fd5b50565b615d298161528e565b8114615d3457600080fd5b5056fea2646970667358221220b1b0017ba0de74ba6c96db71e9460307708139b06c069260cbb5eb012ab07b5464736f6c63430008040033",
  "linkReferences": {},
  "deployedLinkReferences": {}
}